:020000040800F2
:1000000000800120B12A0008FD2A0008710C0008B8
:10001000790C0008810C0008890C00080000000021
:1000200000000000000000000000000061820008E5
:10003000FD2A0008000000001D820008558100080C
:10004000FD2A0008FD2A0008FD2A0008FD2A0008F4
:10005000FD2A0008FD2A0008FD2A0008FD2A0008E4
:10006000FD2A0008FD2A0008FD2A0008FD2A0008D4
:10007000FD2A0008FD2A0008FD2A0008FD2A0008C4
:10008000FD2A0008FD2A0008FD2A000800000000E3
:10009000000000000000000000000000FD2A000831
:1000A000FD2A0008FD2A0008FD2A0008FD2A000894
:1000B000FD2A0008FD2A0008FD2A0008FD2A000884
:1000C000FD2A0008FD2A0008FD2A0008FD2A000874
:1000D000FD2A0008FD2A0008FD2A00080000000093
:1000E000FD2A0008FD2A0008FD2A00080000000083
:1000F000000000000000000000000000FD2A0008D1
:1001000000000000FD2A0008FD2A0008FD2A000862
:1001100000000000000000000000000000000000DF
:10012000FD2A0008FD2A0008FD2A0008FD2A000813
:10013000FD2A000800000000000000000000000090
:10014000000000000000000000000000FD2A000880
:10015000FD2A0008FD2A0008FD2A0008FD2A0008E3
:10016000FD2A0008FD2A0008000000000000000031
:10017000000000000000000000000000000000007F
:1001800000000000FD2A0008000000000000000040
:10019000FD2A00080348044B834202D0034B03B1FD
:1001A00018477047880600208806002000000000DD
:1001B0000548064B1B1AD90F01EBA301491002D0C9
:1001C000034B03B1184770478806002088060020BB
:1001D0000000000010B5064C237843B9FFF7DAFFA2
:1001E000044B13B10448AFF300800123237010BD0A
:1001F000880600200000000010B3000808B5054B79
:100200001BB105490548AFF30080BDE80840FFF782
:10021000CFBF00BF000000008C06002010B3000814
:10022000A3F5803A704700BF174B002B08BF134B54
:100230009D46FFF7F5FF00218B460F461348144AF1
:10024000121A0AF050F80E4B002B00D098470D4BB5
:10025000002B00D098470020002104000D000D481D
:10026000002802D00C48AFF300800AF0C3F8200049
:10027000290004F06FFD09F05FF800BF00000800DE
:1002800000000000ED20000800800120880600200A
:100290000017002000000000000000000346006876
:1002A00018B9186808B9181D18607047024B1B6808
:1002B00003B11847704700BFA4060020C36810B5FB
:1002C00004460BB19B689847204610BD07B50190C6
:1002D00001F09AF90198012100F0E0FD03B05DF80A
:1002E00004EB01F09BB907B5019001F08DF901987D
:1002F000002100F0D3FD03B05DF804EB01F08EB9EE
:1003000007B5CDE9001001F07FF9DDE9001000F03C
:10031000C1FD03B05DF804EB01F080B9007B7047CC
:1003200038B50B4B03600023C0E9013104460D468C
:1003300002730848FFF7B2FF45B1074B1A686260C5
:100340001C600448FFF7AAFF204638BD6560F8E747
:10035000DCAC0008AC060020A806002010B5124B4B
:10036000036004461148FFF799FFA3682BB11049B9
:1003700062680B68A34210D10A600E4B0B481A68E2
:10038000A24204BF00221A60FFF788FF237B13B943
:10039000201F01F0ABFD204610BD19465B68A3424B
:1003A000FBD14A60E9E700BFDCAC0008AC060020E6
:1003B000A8060020B406002010B50446FFF7CEFFC3
:1003C0002046102101F08EFD204610BDF8B50646EE
:1003D00014480D46FFF762FF134B1C6894B1A768E1
:1003E00077B138460AF09AF8A84209D12A46314630
:1003F000384609F04EFF18B90A48FFF74FFF0FE0E3
:100400006468EBE7072DF7D108482A46314609F022
:1004100040FF0028F0D10348FFF740FF044B1C6861
:100420002046F8BDAC060020A806002068AA0008F7
:10043000B4060020002070470020704703680122A6
:100440001B6900211847036800221B6911461847E1
:100450006FF01500704703681B69184703689B69B4
:10046000184703689B6A184700290CBF6FF01800F3
:1004700000207047012070476FF0150070476FF043
:1004800015007047112070477047036870B51B69ED
:100490000122002104469847051E0DDB2368022235
:1004A0001B690021204698472368064629461B6998
:1004B0000022204698473546284670BD70B50D4647
:1004C0000026C0E900660C490446284609F013FFDF
:1004D00028442060314623681A782F2A06D1013338
:1004E0002360FFF773FF6060204670BD002AF8D0DC
:1004F000013301312360EEE770AA000800687047FD
:10050000406808B520B1FFF709FF431E5842584123
:1005100008BD10B50446FFF7F3FF10B1606800B1E5
:10052000043810BD406808B520B1FFF7F7FEB0FAF7
:1005300080F0400908BD10B50446FFF7F3FF10B185
:10054000606800B1043810BD4068003818BF012051
:100550007047416830B4034671B1D0E9032000F020
:10056000010402B944B1451001EB60000CB14959D6
:100570008A58996830BC104730BC7047036870B522
:1005800004460D461B68984704F13000C4F8C45077
:10059000294600F08BFD044B1C60236820465B68F5
:1005A000BDE87040184700BFC0060020036870B562
:1005B000094D1B68044698472B68A34206D0D4F81F
:1005C000C41004F1300000F071FD2C602368204657
:1005D0005B68BDE870401847C00600207FB51D4627
:1005E00003680446CDE902211B6898472046FFF7BF
:1005F000DDFF9DF8203083F00103DDE90221009347
:1006000004F130002B4600F08FFE236806465B683D
:1006100020469847A81B18BF012004B070BD7FB5C5
:100620001D4603680446CDE902211B689847204611
:10063000FFF7BCFF9DF8203083F00103DDE90221C4
:10064000009304F130002B4600F012FE23680646AA
:100650005B6820469847A81B18BF012004B070BDF6
:1006600070B590B00D46144600211C2202A809F076
:100670003AFE012600231A46294602A8009601F0F8
:1006800073F91C22002109A809F02DFE00231A4647
:100690000096214609A801F067F90A9B1A68099B90
:1006A0001A4203D16FF0010010B070BD039B1968AE
:1006B000029B194043D109A8FFF722FE09A8FFF7C2
:1006C00005FE0A24002109A8FFF71AFE099B0C9ACF
:1006D0001B041360052001F00BFF012109A8FFF79F
:1006E0000FFE0B9B099A1A60052001F001FF013CE7
:1006F000E8D102A8FFF7EAFD029B059A1B041360EC
:10070000052001F0F5FE0B9B099A1A60052001F007
:10071000EFFE049B029A1A60052001F0E9FE02A890
:10072000FFF7E1FD09A8FFF7DEFD0A9B1A68099BA8
:100730001A42B7D0039B1A68029B1A42B2D000201B
:10074000B2E7C36810B504460BB19B6898472046D2
:1007500010BD0000064B10B504460360806A08B166
:10076000FFF7A4FD201DFFF7ECFF204610BD00BFE2
:1007700048AD000810B50446FFF7ECFF2046CC2139
:1007800001F0B0FB204610BD08B50248FFF786FD1A
:1007900008BD00BFB80600201C4B2DE9F0410446FF
:1007A0000D46164640F8043B1022002109F09BFD3F
:1007B00004F130080021164BA185C4E90711C4E9F2
:1007C0000911144F63619422A461404609F08BFD26
:1007D000114BC4F8C4303846FFF760FD3246294655
:1007E000A4F8C850A4F8CA602046FFF739FFB4F94E
:1007F000CA20B4F9C810404600F00CFD074B38463B
:100800001C60FFF74BFD2046BDE8F08148AD0008B5
:1008100053050008B8060020A0860100C00600208D
:10082000884238B504460D460ED0FFF747FD10222A
:100830000021204609F057FDEB681BB15B68294693
:1008400020469847EB68E360204638BD704700F0CB
:100850008DB8A0F1B400FFF7FABF00F08AB8A0F19C
:10086000B400FFF7FABF00000A4B10B503F108020D
:10087000026003F1280294330446C0F8B420C0F8A3
:10088000B830B43000F0C4F9204600F01DF920461D
:1008900010BD00BF6CAE0008A0F1B400E4E7A0F109
:1008A000B800E1E710B50446FFF7DEFF2046D0218F
:1008B00001F018FB204610BDA0F1B400F2E7A0F152
:1008C000B800EFE77047704738B504461D46049BF3
:1008D00000F056F8294604F1B40000F071F9064B17
:1008E00003F10802226003F128029433C4F8B42013
:1008F000C4F8B830204638BD6CAE0008704701F12E
:10090000090300EB0313DA6832B100EB011118465A
:10091000D1F89C20126810477047416830B40346F4
:1009200071B1D0E9032000F0010402B944B14510CF
:1009300001EB60000CB149598A58996830BC1047E6
:1009400030BC704770B50646044656F8443B0D4629
:100950001B6898473046294601F012FF2368C4F807
:10096000B05020465B68BDE870401847443002F044
:100970007BB810B544300C4602F088F8204610BD14
:100980002DE9F04F87B0002501932F4B036010260F
:100990002E4B43600446C0E90355C0E9055588461F
:1009A00091468583324629468060203009F09BFCC1
:1009B00004F144073246294604F1300009F093FC63
:1009C00004F1900A2946A4F840504C22384609F018
:1009D0008AFC04F1A00B32462946504609F083FCFC
:1009E00032462946584609F07EFC019BC4F8B030D7
:1009F0003246294602A809F076FC02A95046FFF7C4
:100A00000FFF02A8FFF75AFC3246294602A809F058
:100A10006AFC02A95846FFF703FF02A8FFF74EFC45
:100A20004A464146384601F0C5FED4F8B010384673
:100A300001F0A6FE38460649224601F0B9FF2046DD
:100A400007B0BDE8F08F00BF10AF00081B09000819
:100A5000FF0800082DE9FF41036815460F460446CC
:100A60001B6805F10906984704EB061600F0CCFD5B
:100A7000FA68F36804F14408A2B10BB900F0FAFF78
:100A800039463046FFF7CCFE01222946404601F0A8
:100A90009BFF00F0C3FD236820465B68984704B0C5
:100AA000BDE8F0810BB100F0F9FF1022002168468B
:100AB00009F019FC69463046FFF7B2FE6846FFF7B9
:100AC000FDFB0022E1E700001FB51A4B036004465E
:100AD00010220021684609F006FC002269462046E3
:100AE000FFF7B8FF6846FFF7E9FB102200216846D0
:100AF00009F0F9FB012269462046FFF7ABFF684683
:100B0000FFF7DCFB04F1A000FFF7D8FB04F1900035
:100B1000FFF7D4FB04F13000FFF713FE04F12000CF
:100B2000FFF70FFEA06908B1FFF7C0FB204604B035
:100B300010BD00BF10AF000810B50446FFF7C4FF9A
:100B40002046B42101F0CEF9204610BD7047704711
:100B500000207047F8B50368DB6D0D4604468F181A
:100B600098472E46BE42236806D05B6D16F8011BDF
:100B7000204698470130F5D1236820461B6E9847E0
:100B8000701BF8BDF8B50368DB6D0D4604468F1881
:100B900098472E46BE42236807D09B6D2046984753
:100BA000431C02D006F8010BF4E7236820461B6EB5
:100BB0009847701BF8BD00207047002070477047B1
:100BC0000F4B13B50022044640F8043BFFF7A8FB87
:100BD0000C4B23606C336360002363610A49204639
:100BE00001F0CCF90346606128B900900246014645
:100BF000064800F0ADFD00F0EBFF204602B010BD4E
:100C0000ECAC000894AF000872AA0008190101803A
:100C10000A4B03F10802743310B5044602604360C6
:100C2000406908F02FFE064B236020465C3340F8F5
:100C3000043FFFF793FB204610BD00BF8CAF0008B8
:100C400028AF000838B503680446DB6D0D469847A9
:100C500001226069002109F05DF86169284609F008
:100C60004FF8236805461B6E20469847284638BD36
:100C70004FF0100300F00CB84FF0200300F008B85C
:100C80004FF0300300F004B84FF0400300F000B81C
:100C9000EFF308804FF0040172460A4201D0EFF3EF
:100CA00009809C46254B196802680A600431426835
:100CB0000A60043182680A600431C2680A60043143
:100CC000F0C147460F6004314F460F60043157466C
:100CD0000F6004315F460F60043102690A60083119
:100CE00042690A60043182690A600431C2690A609B
:100CF0000431034620334FF40076324200D00433EF
:100D000075464FF01006354200D148330C46103C72
:100D10002360EFF309820A600431EFF308820A606E
:100D2000043172460A600431EFF314820A606046AF
:100D3000024B196800F094FDFEE7000008B00008BF
:100D400030B591FAA1F391FAA1F1B3FA83F30468F3
:100D50005B000325B1FA81F105FA03F3490024EAA7
:100D600003038A401343036030BD00007FB52B4B63
:100D7000002207284FD8DFE800F004121E2A364E62
:100D80004E4200921A6B264842F001021A631B6B16
:100D900003F001030093009B07B05DF804FB019290
:100DA0001A6B204842F002021A631B6B03F0020325
:100DB0000193019BF0E702921A6B1B4842F0040278
:100DC0001A631B6B03F004030293029BE4E7039294
:100DD0001A6B164842F008021A631B6B03F00803F3
:100DE0000393039BD8E704921A6B114842F0100258
:100DF0001A631B6B03F010030493049BCCE705926A
:100E00001A6B0C4842F080021A631B6B03F08003DC
:100E10000593059BC0E7084800F086FC00380240B7
:100E2000000002400004024000080240000C0240A2
:100E300000100240001C024075AA000810B54FF4D3
:100E40007071044604F00F0401F08EFB0120A040F5
:100E500010BD00004B1C70B504460E46018216D032
:100E6000C1F30310FFF782FF05463046FFF7E6FFA8
:100E7000238A074A656103F00F03206052F823308C
:100E8000A36105F110031835C4E90255636070BD14
:100E9000ACB00008B0F9100001F0E2BB0A46D0E99E
:100EA00005010AB9FFF74CBF0122FBE708B503F0C3
:100EB00031FA002008BD000008B50A4B1B684BB191
:100EC00001F008FB01F0F4FA4FF47A72002308F005
:100ED000BBF808BD044B586A4FF47A73B0FBF3F0CB
:100EE000F7E700BF58070020000C004007B5054B8E
:100EF0009868019002F05EF8019803B05DF804EB89
:100F000002F0B8BBC406002007B5054B5868019035
:100F100002F050F8019803B05DF804EB02F0AABBB0
:100F2000C406002007B5054B1868019002F042F88E
:100F3000019803B05DF804EB02F09CBBC4060020EE
:100F400070B5244C90F96430A56890F9652003F1E0
:100F5000100645F8261002F11006A56845F826107F
:100F600090F86810002914BF10212021002BB5BF74
:100F700003F00F0003F16040043800F56140B6BF94
:100F8000241880F800132176002A11DB02F160405A
:100F900000F56140002B80F800130FDA012351099E
:100FA00002F01F0203FA02F20B4B43F8212070BD3E
:100FB0000A4802F00F04002B0155F8DB580903F032
:100FC0001F0101238B40044941F82030002AE5DA53
:100FD000EDE700BF00ED00E000E100E014ED00E00F
:100FE00010B590F9654090F9640001F0C9FD204604
:100FF000BDE8104001F0C4BD90F85830012B00F15D
:10100000040109D0022B09D0002B054818BF00208D
:10101000044A42F8231070470348F9E70348F7E70A
:10102000250F0008C4060020090F0008ED0E000877
:101030001A4A03681268C16DB2FBF1F114224360D1
:101040004A439969890701D5013AFAD1144A934272
:1010500009D1144B1A6A42F400121A621A6A22F475
:1010600000121A627047104A934204D002F580625F
:10107000934209D070470B4B1A6A42F480021A62FD
:101080001A6A22F48002ECE7064B1A6A42F4000264
:101090001A621A6A22F40002E3E700BFA8020020E5
:1010A000005400400038024000580040F8B5124B90
:1010B000C26D1B68B3FBF2F214235343426804462B
:1010C0000E46071D9169890701D5013BFAD100251C
:1010D0002946A660E560384602F08CFB4FF4804359
:1010E000C4E90535C4E908552561E561384601F0D4
:1010F0006FFDE665F8BD00BFA8020020F0B50E4602
:10110000044685B03D493046154600F09FFC3C49F9
:101110000746284600F09AFCA4F860600146A4F84F
:101120006250384600F070FC364B2060984212D175
:101130000023019384F85830334B1A6C42F40012A8
:101140001A641B6C03F400130193019B42F21F030A
:10115000A4F8643006E02D4B98422BD003F5806351
:10116000984239D02549304600F02CFC24492846C5
:1011700000F028FC0421304601F072FA04212846D0
:1011800001F06EFAE36D0BB9214BE3652046FFF7E2
:101190004FFFE16DFFF78AFF002384F8693084F880
:1011A000683084F86A3084F86730042384F8663045
:1011B00005B0F0BD012384F8583000230293124B90
:1011C0001A6C42F480021A641B6C03F480030293CD
:1011D000029B42F22123BBE7022384F8583000230C
:1011E0000393094B1A6C42F400021A641B6C03F45B
:1011F00000030393039B44F64813A9E794AD00084A
:1012000058AD00080054004000380240005800402B
:10121000A086010070B504460D46164600219422B2
:1012200009F061F8324629462046BDE87040FFF7D4
:1012300065BF016808B50A6842F400720A6090F858
:101240006620042A05D0B0F96220B0F96010FFF7DB
:1012500055FF002008BD10B50446FFF7EAFFB4F9BA
:101260006220B4F960102046BDE81040FFF746BF89
:10127000F0B51D4690F8663085B0042B0E46044646
:101280000A9900F1040701D0082B3FD100293BD077
:10129000042384F86630002384F8673020460392E4
:1012A000FFF7AAFE01462046FFF74AFE94F8663093
:1012B0000093039AABB2B1B2384601F05DFDF0B9CC
:1012C000184B1E68E36DB6FBF3F605FB06631E269E
:1012D0005E4394F8673013F01E0F01D1013E1DD11B
:1012E0002046FFF77DFE1EB194F86730082B08D02A
:1012F000B4F96220B4F960102046FFF7FFFE6FF0EA
:101300000105284605B0F0BD0123C2E7013B012BD2
:10131000C1D809B10823BCE70223BAE7012001F0D4
:10132000E7F8D6E7A8020020F0B51D4690F8663031
:1013300085B0042B0E4604460A9900F1040701D03B
:10134000082B3FD100293BD0042384F866300023CA
:1013500084F8673020460392FFF74EFE0146204690
:10136000FFF7EEFD94F866300093039AABB2B1B28A
:10137000384601F09BFCF0B9184B1E68E36DB6FBD4
:10138000F3F605FB06631E265E4394F8673013F000
:101390001E0F01D1013E1DD12046FFF721FE1EB1D7
:1013A00094F86730082B08D0B4F96220B4F96010C3
:1013B0002046FFF7A3FE6FF00105284605B0F0BDFB
:1013C0000123C2E7013B012BC1D809B10823BCE7C7
:1013D0000223BAE7012001F08BF8D6E7A80200202B
:1013E000436F07B50146ABB1D0F8843093B190F8A4
:1013F0006C20002A14BF0822022280F8622000928A
:10140000D0F88020B0F868109BB201F0B5FC03B0B2
:101410005DF804FB082381F86330F8E7082380F8BF
:101420006330704738B5051D04460261284601F057
:10143000CFFB2046FFF7E0FD01462046FFF780FD89
:101440002846BDE8384001F003BD37B504460438EE
:1014500094F8645005B1E568B4F95E20B4F95C1005
:101460000190FFF74BFE01983DB1012384F86430F1
:1014700000232A461946FFF7D5FF022384F863307C
:1014800003B030BD19B9012380F8653070470129D8
:1014900008BF80F866107047002380F865307047F9
:1014A000002380F86630704701F0D2BC10B50446C6
:1014B00050F80429536823F4E0635360FFF790FD6C
:1014C000022384F8633010BD03460122D3E84F0F96
:1014D000C3E8412FC0B20029F8D17047D0E85F3F80
:1014E0005B18C0E8523F002AF8D198B27047D0E8A4
:1014F0005F3F5B1AC0E8523F002AF8D198B27047AC
:10150000D0E84F3FC0E8421FD8B2704700B589B05D
:1015100000F07AF8052101A800F023FA114E124DCF
:101520000424039B019A1A60304600F0E1FF019BFE
:10153000049A1B041360304600F0DAFF013CF0D13E
:101540000424039B019A1A60284600F0D1FF019BF6
:10155000049A1B041360284600F0CAFF013CF0D136
:10156000DEE700BFF0490200801A060007B5014619
:1015700000220190022000F0B1FB00F045F8019933
:10158000084608F0CBFF01990246022000F0A6FBB6
:1015900003B05DF804EB00F041B8000000B5A3B063
:1015A00002460B4601A8842108F03AFD832806D99B
:1015B000074B1A681B79CDF883208DF887300028F7
:1015C00002DD01A8FFF7D2FF23B05DF804FB00BFE6
:1015D00096AA00080FB407B504A951F8040B0191AD
:1015E000FFF7DCFF03B05DF804EB04B07047EFF3E6
:1015F0001080C04300F001007047EFF30580003811
:1016000018BF01207047000008B500F013F8024A27
:1016100013680133136008BDD8060020044A13681C
:1016200023B1013B13600BB900F016B8704700BF3F
:10163000D8060020EFF3108372B6054A117831B94D
:101640000449DB4303F001030B700123137070475F
:10165000DD060020DC060020034B00221A70034B3D
:101660001B7803B162B67047DD060020DC0600205F
:1016700008B50B48FFF728FF28B1FFF7C5FFBFF3F8
:101680004F8F20BFFDE7FFF7B8FF08B1FFF73EFF20
:10169000FFF7ADFF0028F9D0012007F04DFE00BF95
:1016A0002007002070B51B4C8EB034EA200428BF00
:1016B00004460D4616460021282204A808F013FE11
:1016C000CDE901460395FFF79FFF134A13680133E5
:1016D000012B136009D101AD0FCD104C0FC40FCDFC
:1016E0000FC40FCD0FC42B68236001AC0FCC0C4D81
:1016F0000FC50FCC0FC50FCC0FC523682B60094B4E
:101700001B6813B1A5F130009847FFF787FF002051
:101710000EB070BD0101FF80E0060020EC06002045
:1017200024070020E40600200FB407B50121064875
:10173000CDF804E0FFF7E4FE019A014610B9034832
:10174000FFF7B0FFFFF794FFE80600200001FF80DD
:1017500008B504460121064876461546FFF7D0FE37
:1017600020B9324629462046FFF79CFFFFF780FF4D
:10177000E8060020F0B52C4E2C4F85B000243546ED
:10178000214656F8042B38460134FFF723FF0D2C71
:10179000F6D1AB6C02936B6C01932B6C244C0093D1
:1017A000D5E90E23696B2348FFF714FF216822480F
:1017B000FFF710FFE16AA26AA36AA06A266BE76BD3
:1017C000000CCDE901670090C3F307231B48D2B298
:1017D000FFF700FFA36A1E0603D5616B1848FFF7E9
:1017E000F9FEA36A180403D5A16B1648FFF7F2FEB1
:1017F000EB6C190712D51448FFF7ECFE2B6DDA07D6
:101800000FD51248FFF7E6FEEB6C5B074CBF1048A4
:10181000104805B0BDE8F040FFF7DCBE0E48FFF70A
:10182000D9FE0E48EEE700BF581500209BAA00081D
:1018300000ED00E0A9AA0008F8AA000806AB00081D
:1018400055AB000863AB000871AB000880AB000823
:10185000B0AB0008BCAB0008A0AB00088DAB000823
:1018600013B504461548FFF7B5FE302C17D0402CB1
:101870001AD0202C1DD11248124CFFF7ABFE124893
:10188000FFF7A8FEFFF776FF1048FFF7A3FE104A08
:10189000104900230093D26B2046FFF759FF0E48F2
:1018A0000E4CFFF797FEEAE70D480E4CFFF792FE4D
:1018B000E5E70D480D4CFFF78DFEE0E7C8AB0008EB
:1018C000F1AB00083E01FF801EAC000829AC000807
:1018D0005815002048AC000800AC00083F01FF800C
:1018E00009AC00084001FF8014AC00083D01FF80F6
:1018F00070B50E4604461546FFF7ACFA013609D01E
:1019000020460021FFF7CAFA29462046BDE870406C
:10191000FFF7C0BA70BD38B5036804460D465AB12A
:101920008268136020460121FFF7B8FA2946204655
:10193000BDE83840FFF7AEBAC2681B04F1E737B51F
:101940000D4604460192FFF785FA013507D0019A4A
:101950000021204603B0BDE83040FFF7DCBF03B0F4
:1019600030BD0022FFF7EBBFF8B5069F04460E46D8
:101970001D4662B91A46FFF7BBFF013603D0236844
:1019800017B1A2681360F8BDE2681B04FAE7FFF71D
:1019900061FA0136F7D03A4629462046BDE8F840BC
:1019A000FFF7B9BF08B502F063FC01F0A9F802F037
:1019B00051FC02F05DFC024B01221A6008BD00BF21
:1019C000580700201FB5431C10D105B05DF804FB7B
:1019D00083420AD18968039000F0C6FD0398002174
:1019E00005B05DF804EB00F03BBE0C31B1F90030FE
:1019F0005A1CEDD100230246009302481946FFF716
:101A0000A7FE00BF30010180884207B502460AD018
:101A1000431C08D0013105D0002305480093194626
:101A2000FFF796FE0146084603B05DF804FB00BFD1
:101A300030010180B1F900305A1C01D118467047BD
:101A4000834201D1486870470C31F3E7421C13B55B
:101A500004460AD0FFF7EEFF431C06D100230448DA
:101A6000009322461946FFF773FE02B010BD00BF77
:101A70003001018013B5074C01212046FFF72EFDF0
:101A8000034628B90090014622880348FFF760FE0C
:101A900002B010BD5C0700202301048013B5094C7F
:101AA00001212046FFF723FD4FF6FF73984206D130
:101AB00000232288044800931946FFF749FE02B02C
:101AC00010BD00BF5C070020240104806FF01C00E3
:101AD00070476FF015007047012070470020704775
:101AE00070470000F8B5074E15460C468F18BC42EB
:101AF00005D014F8011B304600F0C8FFF7E7284670
:101B0000F8BD00BFAC15002038B511F001048DB24E
:101B100005D0084800F0E8FD041E18BF0124EB06BC
:101B200005D5044800F0F6FD08B144F01004204645
:101B300038BD00BFAC15002010B5044607F016FCF8
:101B4000204610BD10B50C462AB1044800F08CFFA9
:101B50002070012010BD1046FCE700BFAC1500202E
:101B600038B51D46074B0360074B1B68044633B965
:101B7000064800F01FFE0548294600F001FE2046F9
:101B800038BD00BF14B00008B0070020AC1500201D
:101B9000002070470020704708B5012007F0CCFBFB
:101BA000074A084913681844884289BF064B1060E9
:101BB0000C224FF0FF308CBF1A601846704700BFF0
:101BC0009C020020007C012050150020012070475D
:101BD000002108F0FBB87047704708B5FFF7FBFF1E
:101BE00008BD08B5FFF7F8FF08BD037803F003034D
:101BF000012B09D0037803F00302012A04D043F03B
:101C0000020303700120704700207047037823F01F
:101C1000030343F001030370704700003F2870B5D1
:101C200004462FDC184D55F820305A1C13D10228D9
:101C300011DCFFF7AFFF034658B92046FFF7A8FFB6
:101C4000034630B9114E3378BFF35B8FDB0704D501
:101C50000F4B45F82430184670BD3046FFF7C5FFDE
:101C60000028F5D04FF41653032202210848FFF74D
:101C700077FF3046FFF7CAFF064A07490448FFF7D7
:101C8000A5FFE5E70023E6E79C01002060070020B0
:101C90006C07002098010020E11A000838B50546BD
:101CA000FFF7BCFF0B4B002443F8254030B908F088
:101CB0009BFB092303604FF0FF3038BD03685B696D
:101CC0009847051E04DA08F08FFB6D420560F2E7C5
:101CD0002046F2E79C010020FFF7E0BF13B5CDE9F5
:101CE0000021FFF79BFFDDE9002140B908F07CFBF4
:101CF000092303604FF0FF34204602B010BD036893
:101D0000DB689847041EF7DA08F06EFB6442046053
:101D1000F0E708B5131E07DA08F066FB1623036028
:101D20004FF0FF33184608BDFCD0FFF7D7FF40EA5D
:101D3000E073F7E713B5CDE90021FFF76FFFDDE9A9
:101D4000002140B908F050FB092303604FF0FF3435
:101D5000204602B010BD03689B689847041EF7DA5E
:101D600008F042FB64420460F0E7002A08B503DB98
:101D7000BDE80840FFF7DEBF08F036FB162303601E
:101D80004FF0FF3008BD10B5FFF748FF044628B9F3
:101D900008F02AFB09230360204610BD0368DB69B5
:101DA0009847041EF8DA08F01FFB64420460002420
:101DB000F2E737B54023CDF80100054668468DF8B7
:101DC000003007F071FF044630B12846FFF7DBFF13
:101DD00010B12046FFF7FCFE204603B030BDFFF7F0
:101DE000D2BF13B5CDE90021FFF718FFDDE90021CF
:101DF00040B908F0F9FA092303604FF0FF34204698
:101E000002B010BD03681B699847041EF7DA08F09A
:101E1000EBFA64420460F0E7FFF7E3BF10B5FFF7A9
:101E2000FDFE30B908F0E0FA092303604FF0FF30FF
:101E300010BD03689B699847041E04DA08F0D4FAC1
:101E400064420460F2E70020F2E700000A4D08B5A2
:101E50002B680446986807F0C9FD2B68D86807F01E
:101E6000C5FD0120FFF7DAFF0220FFF7D7FF0CB115
:101E7000FFF74CFBFEE700BF2406002038B50D46F7
:101E8000FFF7CCFE044630B908F0AEFA0923036030
:101E90004FF0FF3038BD0368DB699847002814BF56
:101EA0004FF400534FF400436B60236820469B6A55
:101EB000984728610020EDE7FFF7E0BF1FB50390CA
:101EC00007F04CFA039A034620B9009001460348F4
:101ED000FFF73EFC05B05DF804FB00BF1F01018069
:101EE000FFF7ECBF07F042BA07F040BA10B504465E
:101EF0000848FEF7D3F9084A4023002152F8040BA2
:101F0000A04208BF42F8041C013BF7D10148FEF78C
:101F1000C5F910BD640700209C01002010B50F48D2
:101F2000FEF7BCF90E4B032453F824206AB10134A8
:101F3000402CF9D108F058FA182303600748FEF73F
:101F4000ADF94FF0FF34204610BD4FF0FF3203488B
:101F500043F82420FEF7A2F9F5E700BF640700204C
:101F60009C01002010B50446FFF7D8FF0028A4BF4D
:101F7000014B43F8204010BD9C01002073B506467C
:101F80000191FFF7EFFF051E13DB0199FFF711FF2A
:101F9000044630B9084B53F82520964204D143F843
:101FA0002500204602B070BD08F01EFA0923036028
:101FB000F7E70024F5E700BF9C0100200EB42DE9EF
:101FC000F04187B00190FFF7A9FF041E13DB002347
:101FD0000199039304A8FEF771FA04A8FEF7B4FA76
:101FE0001B4E054668B908F0FFF91323036046F855
:101FF00024504FF0FF34204607B0BDE8F04103B055
:10200000704704A8FEF78EFA074604A837B1FEF71A
:1020100092FA0390039B46F82430ECE7FEF779FA36
:1020200005460028DFD0036804A8D3F80880FEF72F
:1020300065FA0D9B024603A92846C04705460028BD
:10204000E8D008F0D1F96D42056046F82470D0E779
:102050009C01002070B50E461549054608F0F2F9BE
:10206000044618B9FFF7DAFD204670BD114928462D
:1020700008F0E8F920B90120FFF7D0FD0124F3E7CB
:102080000D49284608F0DEF920B90220FFF7C6FD09
:102090000224E9E72B78402B02D1D5F80140E3E791
:1020A00026F400412846BDE87040FFF787BF00BF17
:1020B00070B0000877B0000868B0000870470000F2
:1020C000084B094998684FF00053C21802F160426A
:1020D000126843F8042B8B42F7D1024B4FF00052A9
:1020E0009A60704700ED00E09401002008B5FFF70A
:1020F000E7FFFFF757FC02F061F9FFF7DFFF08BDCC
:102100002DE9F74F446894F83A100646002955D156
:102110000168496888477168096A814205464DD05F
:10212000206AE168A6682562281A0140384886427C
:102130008C464FF0000E39D094F83BB0D4E90A5ADF
:102140000027A1FB0001BBF1000F46D0CBF1200816
:1021500001FA08F820FA0BFCABF1200E21FA0EFE72
:102160004CEA080C4CEA0E0C2D1821FA0BFEABF1D0
:1021700020094AEB010ACBF120080EFA0BF10CFA08
:1021800009F941EA09012CFA08F80CFA0BF02B1AAC
:1021900041EA080100936AEB01030193DDE90023A2
:1021A000BB4208BFB2420CD2C4E90A23D4E90C01F5
:1021B00010EB0C0041EB0E01C4E90C0103B0BDE8CB
:1021C000F08F009B1CF1010C4EF1000E9A1B019B3D
:1021D00063EB0703C4E90A23E8E732463B4606F00F
:1021E00033FF12EB050843EB0A09B94508BFB045B8
:1021F00084468E4602D2C4E90A89D7E710F1010C61
:1022000041F1000EB8EB060269EB0703E2E700BFFD
:1022100040420F00824206D98A420BD9884294BFBD
:10222000002001207047884206D98A428CBF0020D6
:102230000120704701207047002070472DE9F74FBB
:10224000D0F8048098F83A300746002B40F081809F
:1022500098F83930002B7CD1FFF752FF7E683A683E
:1022600073680192002B66D0D6E90C01D3E90023F4
:10227000994208BF904205D3019B5B6903B0BDE85A
:10228000F04F1847141A63EB0105D6E90623AB4259
:1022900008BFA242D6F8109006D3B2682E4B9A42DD
:1022A00019D1A14528BFA146326A019B9144F26829
:1022B0001B6909EA02021046019298473B685B6875
:1022C0009847019A0146D8F82000FFF7A3FF00289D
:1022D0003FD03B68D1E796F83B30EBB1A3F1200C3F
:1022E000C3F1200224FA02F204FA03F005FA03F122
:1022F00004FA0CFC194C41EA0C0111430019164A6E
:102300004FF000044FF0000344EB010106F09CFE87
:10231000814528BF8146C7E71048A2FB04AB02FBFA
:1023200005BB1AEB00004FF000010B4A4FF0000311
:102330004BEB0101EAE7D8F81030D8F82000D8F8C4
:102340000C201844019B1B69104003B0BDE8F04FFE
:10235000184703B0BDE8F08F40420F003F420F0026
:102360002DE9F04F436893F8382085B00546002AE0
:1023700063D193F83A30002B5FD103681B6898470C
:102380002B68DB69984703682BB92D4800931A46E0
:102390001946FFF7DDF91F21012202FA01F4A342D9
:1023A0005FFA81FA02D00139F7D18A464668321FB6
:1023B0001C2A05D90023234800931A461946E8E74A
:1023C0001C4614F1FF384FF000031F494FF0070778
:1023D00043F1FF399740C1FB0789224640464946F1
:1023E00006F032FE6B682A6803934FF00008C3E9D9
:1023F00000885268894683469047039B01221862F1
:1024000002FA06F66B6800210020013EC3E90A01CA
:10241000C3E90C01C3E903672846C3E906B99C6018
:1024200083F83BA01A8783F83A80FFF769FE2846B5
:1024300005B0BDE8F04FFFF701BF05B0BDE8F08F74
:102440000E0104800501048040420F0070B504466F
:10245000FFF7DAF82368DB689847636893F83A2057
:102460001AB1BDE87040FFF7D9B8012283F83920CE
:1024700063685B68A3B12046FFF742FE65686E683B
:10248000D5E90C01D6E90023994208BF904207D351
:10249000F3686B602B68002BEAD0B0689847E7E7D9
:1024A0006368002283F839202046FFF7C7FED8E78B
:1024B00038B50446FFF754FFFFF7A6F82046FFF7AC
:1024C0001FFE6368D3E90C45FFF7A8F820462946AC
:1024D00038BD70470048704780B00008024B1B6849
:1024E0000BB1024818477047A002002080B00008D6
:1024F000034B596A5A6A521A8242FBD3704700BF93
:10250000000C004030B591FAA1F391FAA1F1B3FAB1
:1025100083F384685B000325B1FA81F105FA03F3C4
:10252000490024EA03038A401343836030BD30B579
:1025300091FAA1F391FAA1F1B3FA83F3C4685B00B5
:102540000325B1FA81F105FA03F3490024EA0303F4
:102550008A401343C36030BD012A02D0022A18BF4B
:102560000022FFF7E4BF00002DE9F84300F00F025E
:102570003A4B1FFA80F9C0F3031053F82270C1F3ED
:10258000831801F007060D46FEF7F0FBB8F10F0FB8
:102590000CBF0322424639460446FFF7B3FF022E22
:1025A00028D0032E58D0711E4B424B4197FAA7F208
:1025B000B2FA82F221685200032000FA02F221EA04
:1025C000020197FAA7F2B2FA82F252009340013E5A
:1025D0000B43012E236005D863682A074CBF3B4399
:1025E000BB436360C5F3011239462046BDE8F8439A
:1025F000FFF7B2BF19F0080FC5F3832217D03B0ACB
:1026000093FAA3F1B1FA81F1406A93FAA3F3890036
:102610004FF00F0CB3FA83F30CFA01F19B0020EAA0
:10262000010102FA03F30B4363620223BEE797FA48
:10263000A7F1B1FA81F1036A89000F2000FA01F1D4
:1026400023EA010197FAA7F3B3FA83F39B0002FA96
:1026500003F30B432362E8E73346A7E7ACB0000877
:1026600038B500F00F021F4BC0F3031053F822508F
:102670000C46FEF77BFB95FAA5F2B2FA82F35A00FC
:1026800001680323934095FAA5F2B2FA82F20B4057
:102690005200D340013B012B1AD8E31E022B4368A2
:1026A00009D82B43032C43601AD101222946BDE8E7
:1026B0003840FFF751BF23EA0503012C4360F4D0F3
:1026C000022C0BD029460022BDE83840FFF72FBF6F
:1026D00004F0FD03012BE8D0052CF1D10222E5E73F
:1026E000052CEEE7ACB000084368094A9B0182B0B4
:1026F000D3581A68120706D5002201921A6801926F
:102700005A680192019A1868C0F3401002B07047ED
:10271000F81500204368034A9B01D3581868C0F39A
:10272000C0107047F815002003464068134A810125
:1027300010B41C688C5002EB80109A684260DA6812
:1027400082601A69C2605A6902611A6A8261002253
:10275000C284C2618284C2858285B3F91A200132A3
:1027600005D108235DF8044B436101F08CBCB3F93B
:10277000183001330CBF04230C23F3E7F8150020B5
:102780008160FFF7D1BF0000094B98420BD0A3F541
:102790004C43984209D003F55043984214BF4FF080
:1027A000FF3002207047002070470120704700BFB3
:1027B00000100140F0B50E4685B041490446304650
:1027C0001546FFF743F93F4907462846FFF73EF90C
:1027D00001463846FFF718F9022E20600AD0032D73
:1027E00008D037490220FFF731F9B84244D13648C2
:1027F000FEF79AFF0127354B206898424FF00003FF
:102800003CD10193324B5A6C42F010025A645B6C1B
:1028100003F010030193019BFFF7B6FF28496060A6
:102820003046FFF7CFF828462649FFF7CBF8701C53
:1028300003D001213046FFF713FF691C03D00121AB
:102840002846FFF70DFF00234FF41652C4E9022378
:10285000C4E904332362268365832046FFF764FFBF
:102860005FB31C4B1C4801221A6021464C2205B064
:10287000BDE8F04007F044BE0027BCE7174A90428D
:102880000FD002F550429042C6D10393104B5A6CC0
:1028900042F020025A645B6C03F020030393039B15
:1028A000BAE702930A4B1A6C42F400321A641B6CAA
:1028B00003F400330293029BAEE705B0F0BD00BF06
:1028C00024AE0008DCAD000858AC00080010014040
:1028D00000380240B0070020AC1500200044004042
:1028E000F7B5FFF751FF041E26DB144F57F82400FD
:1028F00010B3134DA601AB591A68120606D5DB6852
:10290000190603D50F4B01211B689847AB591A686C
:10291000920608D5DB68980605D50A4B57F82400BF
:102920001B6800219847AB591A68110704D55A69EA
:10293000D20744BF5B68019303B0F0BDB807002025
:10294000F8150020B40700200148FFF7C9BF00BFF9
:10295000001401400148FFF7C3BF00BF004400401E
:102960000148FFF7BDBF00BF00100140002808DB91
:102970000123420900F01F0003FA00F0014B43F865
:102980002200704700E100E000280DDB430901222E
:1029900000F01F0002FA00F02033044A42F823003E
:1029A000BFF34F8FBFF36F8F704700BF00E100E0B0
:1029B000034B19604168034B43F82120704700BF67
:1029C000B4070020B8070020D0E9000330B4204C41
:1029D000A0421BD004F58064A0421DD0A4F5504451
:1029E000A04216D0002420461A4D9B01EB58CAB1D4
:1029F000DA68A1B942F02002DA60174B00F1100248
:102A00009B6843F8224030BCFFF7B0BF134C252031
:102A1000EAE7134C2620E7E7124C4720E4E742F0B0
:102A20008002E9E7DA6849B922F02002DA60DB685F
:102A300013F0800F09D130BCFFF7A6BF22F080024F
:102A4000DA60DB6813F0200FF4E730BC704700BF9A
:102A500000100140F815002000ED00E06129000899
:102A6000552900084929000838B54568044620461C
:102A7000FFF73AFE0028FAD0AD01034B5B595868C6
:102A8000C0F3080038BD00BFF815002070B54668D7
:102A900005460C462846FFF73DFE0028FAD0034BBA
:102AA000B601C4F308049B595C6070BDF8150020A2
:102AB000DFF830D0002103E00B4B5B58435004316A
:102AC0000A480B4B42189A42F6D30A4A02E0002306
:102AD00042F8043B084B9A42F9D301F017FBFDF78B
:102AE000A3FB70470080012094B3000898010020E8
:102AF000880600208806002000170020FEE77047A7
:102B000008B50B4B1A6842F400721A601A6842F456
:102B100080621A601A6842F480721A60032000F022
:102B20001DF80F20FEF7C2F9FFF7E9FF002008BDEE
:102B3000003C024038B50446FEF7BEF9631C1CBFDA
:102B4000054B1B78054618BFE418FEF7B5F9431B83
:102B5000A342FAD338BD00BFA40200200749CA68C7
:102B600022F4E0620302120403F4E063120C134344
:102B700043F0BF6343F40033CB60704700ED00E0E7
:102B800000280DDB4309012200F01F0002FA00F0CB
:102B90002033044A42F82300BFF34F8FBFF36F8FF7
:102BA000704700BF00E100E090F83530022B03D001
:102BB00080234365012070470268052380F8353083
:102BC000136823F001031360002070477047000072
:102BD00070B50446002862D090F83D3003F0FF0243
:102BE0001BB980F83C20FFF7F1FF22682D4E2E4DD7
:102BF000242384F83D30136823F00103136001F0AF
:102C000065F863682268B0FBF5F5B34284BF4FF402
:102C100096716943556091BF691C4FF47A75B1FB99
:102C2000F5F10131B342116221D840F6FC715B002D
:102C3000B0FBF3F30B4208BF0423D361D4E907319F
:102C40000B431360D4E903130B439360D4E90531BC
:102C50000B43D360136843F001031360002020236B
:102C6000206484F83D30206384F83E0070BDA16884
:102C700049B903EB4303B0FBF3F3C3F30B0161B1B9
:102C800043F40043D9E719214B43B0FBF3F3C3F3FB
:102C90000B0111B143F44043CFE70123CDE70120FD
:102CA000E4E700BFA086010040420F0073B5002496
:102CB0000094019490F83D40069D202C02D0022003
:102CC00002B070BD042D01D0012D18D1294C46F25F
:102CD000A8162468B4FBF6F6192474430194019CE9
:102CE000661E01963CB92023046380F83C4080F8BE
:102CF0003D300320E4E70468A469A407EFD490F80A
:102D00003C40012CDBD004682668F6075EBF2668CD
:102D100046F001062660266826F400662660212615
:102D200080F83D60102680F83E60002606644385EA
:102D3000C562438D41640385036B0093009B42622F
:102D4000122B01D0009B5BB9042D01D0012D04D1C1
:102D5000236843F48073236002E0009B122BF7D0BA
:102D6000002380F83C30626842F4E06262601846FA
:102D7000A6E700BFA802002073B50024019490F8D4
:102D80003D40069D202C02D0022002B070BD042DD3
:102D900001D0012D18D12D4C46F2A8162468B4FBA1
:102DA000F6F6192474430194019C661E01963CB901
:102DB0002023046380F83C4080F83D300320E4E7A2
:102DC0000468A469A407EFD490F83C40012CDBD040
:102DD000012480F83C4004682668F6075EBF266838
:102DE00046F001062660266826F400662660222644
:102DF00080F83D60102680F83E600026066443851A
:102E0000C562438D41640385036B4262112B01D07F
:102E1000036B93B9042D04D0012D02D015F5803F2A
:102E200008D1236843F480632360236843F48073EC
:102E3000236002E0036B112BF3D0002380F83C30B9
:102E4000626842F4E062626018469EE7A8020020D1
:102E500090F83D30202B14D1282380F83D300368B2
:102E60001A68D2075EBF1A6842F001021A601A6837
:102E700042F480621A605A6842F440725A6000203C
:102E800070470220704770477047000010B590F8F7
:102E90003D200368293A012A044639D800220263FA
:102EA000282280F83D201A6822F400621A605A68CD
:102EB00012F4006254D05A68606B22F400625A60C7
:102EC00090F83530012B394B31D00365FFF76CFE9C
:102ED00050B12268606B136823F001031360202354
:102EE00084F83D30036D984794F83D30282B0ED17F
:102EF000236C5B070BD52E4BE36220220023236358
:102F0000204684F83D2084F83E30FEF7CDFA10BD0F
:102F100090F83D20602A05D05A6812055CBF202237
:102F200080F83D200022226384F83E20BBE7A06B9E
:102F30000365FFF739FE0028D6D023685A6950068A
:102F400004D51A69636A591C61621A702268A06B01
:102F5000136823F001031360202384F83D30C1E798
:102F600094F83D10602914D1202184F83D1022648A
:102F70005A69510604D51A69636A591C61621A704C
:102F80002268136823F0010313602046FEF78EFACF
:102F9000AAE75A69520604D51A69636A591C616224
:102FA0001A702046FEF751FA9EE700BFA9370008C5
:102FB0000000FFFFF0B503689D6959695A6890F8F1
:102FC0003E40102C8DB0E6B202D0402E40F04A8236
:102FD00011F0011F66D0970564D590F83E40402C53
:102FE00043D1046D002C3BD1446C04F0FE041C6101
:102FF000974E984C2E400C40002E00F09A81964D32
:103000000D40002D00F06181550540F15E81002CDE
:1030100040F05D8190F83D20058D90F83E10C46A27
:10302000D2B2C9B2002D40F00581212A40F00481BE
:10303000042C00F06781082C00F0648114F5803FB7
:1030400000F060815A6822F4E0625A601123036341
:1030500080F83E50202380F83D30FEF7C1F910E1A2
:10306000446C44F00104E4B2C1E70469B4F5804F54
:1030700005D190F83D40212C446CF2D1B5E7046DA8
:1030800034B9446CE41104F0060444F0F004AEE7F3
:10309000046D012CACD1446CE41104F0060444F03E
:1030A000F104A4E76D4C0C401CB1960501D5446CAD
:1030B000D9E76B4C0C40002C9AD0940598D590F829
:1030C0003E40C66AD0F830C090F83D70222FE4B27E
:1030D00040F0A880076D47B9402C06D101975C6984
:1030E00001949C690194019C82E7046D8CB9076985
:1030F000B7F5404F0DD102945C6902949C6902942B
:10310000029C1C6844F480741C60046D01340465E6
:103110006EE7448DA4B254B903945C6903949C692E
:103120000394039C1C6844F400741C6019E0448DF3
:10313000A4B2012C42D116F5803F1BD11C6824F4A7
:1031400080641C605C6814F400640CD01C6824F477
:1031500080641C60002404945C6904949C69049459
:10316000049C0024D3E705945C6905949C6905944C
:10317000059CD7E7042E15D0082E13D0BCF1120FF2
:1031800010D0C46A022C1C6814BF24F4806444F478
:1031900080641C60002406945C6906949C69069413
:1031A000069CDEE71C6824F480641C6000240794FD
:1031B0005C6907949C690794079CB3E7448DA4B2AB
:1031C000022C1CD1C46A022C1C681DBF24F480642C
:1031D0001C601C6844F4806418BF44F400641C60E4
:1031E0005C68270542BF5C6844F480545C6000243E
:1031F00008945C6908949C690894089CB1E71C6871
:1032000044F480641C605C68260542BF5C6844F43A
:1032100080545C60002409945C6909949C69099459
:10322000099C9EE700240A945C690A949C690A94AC
:103230000A9CDDE6212A03D0402922D1222A20D16E
:10324000428D92B272B95A6822F480625A6018E0D4
:1032500004001000040001008000010008000100CB
:103260000200010090F83E20402A28D1026D82B968
:10327000C26C012A826C06D1D2B21A61036D02338C
:1032800003650DB0F0BDC2F307221A61036D01336F
:10329000F6E7026D012A02D1826CD2B2F5E7026D27
:1032A000022AEED190F83D20222A04D11A6842F475
:1032B00080721A60E5E790F83D20212AE1D1426A48
:1032C000511C416212781A6193E0002CD9D0940508
:1032D000D7D5C16A90F83D20212AD2D1428D92B231
:1032E000002AECD104290DD008290BD011F5803F1C
:1032F00008D0596821F4E06159601123036380F814
:103300003E20A7E65A6822F4E0625A601A6842F446
:1033100000721A6000232022036380F83D2090F899
:103320003E2080F83E30402A7FF497AEFFF7ABFD99
:10333000A7E78E4D0D40002D3FD051053DD5002C07
:103340003ED190F83D20222A9BD1428D92B2032A91
:1033500005D91A69436A591C41621A7049E0023A58
:10336000012A1A6822F480621A6004D81A6842F4AA
:1033700000621A6067E7C26A022A02BF1A6842F452
:1033800000621A605A6822F4E0625A601A69436A5D
:10339000591C41621A70438D013B9BB24385202327
:1033A00080F83D300023036390F83E2080F83E30E3
:1033B000402A54D1FFF768FD63E7002C3FF461AF6A
:1033C00097057FF55EAFC26A458D416AADB2032DA8
:1033D00001F1010412D1042A04D0082A02D012F506
:1033E000803F03D11A6822F480621A601B6944622C
:1033F0000B70438D013B9BB2438542E7458DADB2D7
:10340000022DF3D1042A26D0082A24D012F5803FB9
:1034100021D01D68013A25F48065012A1D6003D87A
:103420001A6842F480721A601B6944620B70438D03
:10343000013B9BB2438503681A69436A591C416288
:103440001A70438D0268013B9BB24385536823F495
:1034500040735360A3E71A6842F40072E3E7FDF794
:10346000DDFF0EE7424C0C4074B196050CD599690E
:103470009B6981F004011D0654BF8289028BC1F350
:103480008001FDF7FFFFFCE63A4C0C40002C75D0A4
:10349000940573D590F83D20596821F4E061596096
:1034A00000210B9159690B91196841F001011960D4
:1034B0000B99196821F48061196059680905D2B225
:1034C0000CD590F83D10222903D090F83D102A2900
:1034D0002BD1816B0968496889B24185418D89B2D8
:1034E000E1B159694F0708D51969436A5C1C446208
:1034F0001970438D013B9BB24385036859694E06A1
:1035000008D51969436A5C1C44621970438D013BFC
:103510009BB24385036C43F004030364036C33B133
:103520000DB0BDE8F040FFF7B1BC416BD2E7A2F1AE
:10353000280102290AD8104AC2622022036380F8B7
:103540003D2080F83E30FDF7AFFF9AE6036B222B5B
:1035500002D0222A7FF495AE00232022036380F854
:103560003D2080F83E30FDF79BFF8AE640000100D9
:1035700002000100100001000000FFFF394E3A4C2C
:103580002E400C40002E36D0384D0D403DB3550531
:1035900025D53CBB90F83D10428D92B2C9B2002AAD
:1035A0003FF46FAE426A541C446212781A61428D35
:1035B000013A92B24285428D92B2002A7FF461AE06
:1035C00029297FF45EAE5A6822F480625A60212372
:1035D0000363282380F83D30FDF75EFF51E6002CA1
:1035E0003FF44FAE94057FF54CAE428D92B2002A67
:1035F0003FF447AE63E61E4D0D4035B3510524D56B
:1036000034BB90F83D20418D89B2D2B200293FF4FD
:1036100038AE1969436A5C1C44621970438D013BE2
:103620009BB24385438D9BB2002B7FF42AAE2A2A9E
:103630007FF427AE0268536823F48063536022232B
:103640000363282380F83D308DE7002C3FF419AE4A
:1036500092057FF516AE428D92B2002A3FF411AE6C
:1036600077E600BF040010000400010080000100A4
:1036700040000100F8B50368494A5E695D6816427A
:10368000044608D0E80506D5226C42F00102226407
:103690006FF480725A6116F4813F08D0E90506D5AF
:1036A000226C42F0020222646FF400725A6116F436
:1036B000823F36D0EA0534D594F83E70618D94F897
:1036C0003D20206B202F89B2D2B258D1002956D18B
:1036D00002F0F701212903D0282A50D121284ED108
:1036E00094F83D20E16A0429D2B201D008292CD1F6
:1036F000282A2AD12B4AE2625A6822F4E0625A60F0
:103700006FF480625A611A6822F480621A600023A2
:1037100020222363204684F83D2084F83E30FDF7C4
:10372000C3FE16F4843F09D0EB0507D5236C43F0A4
:103730000803236423686FF400625A61236C73B337
:103740002046BDE8F840FFF7A1BB212A23D1154947
:10375000E1622263202284F83D20002284F83E208A
:103760005A6822F4E0625A606FF480625A611A6803
:1037700022F480621A602046FDF78EFED1E7226CAB
:1037800042F00402226494F83E20102A02BF1A6814
:1037900042F400721A606FF480625A61C1E7F8BDAA
:1037A000000101000000FFFF806B08B50368416B5A
:1037B0001A6822F480621A60002242850A65816BD1
:1037C0000A6590F83D1060294FF0200180F83D1007
:1037D00080F83E2007D102641A6822F001021A60C4
:1037E000FDF764FE08BD1A6822F001021A60FDF7B9
:1037F0002CFEF7E710B590F83D30202BDCB216D147
:10380000242380F83D3003681A6822F001021A6010
:103810005A6A22F010025A625A6A114359621A68AF
:1038200042F001021A6080F83D40002010BD0220E5
:10383000FCE700002DE9F341044618B9012002B06D
:10384000BDE8F0810368DD0710D4236898075BD4D6
:1038500023681A0700F19D8023685B0700F1BB8095
:10386000A269002A40F01C810020E8E7A54B9A6875
:1038700002F00C02042A07D09A6802F00C02082A0F
:103880000AD15A68510207D59E4B1B689A03DCD5B2
:103890006368002BD9D1D1E76268B2F5803F11D1BE
:1038A0001A6842F480321A60FDF706FB954E054611
:1038B00033689B03C9D4FDF7FFFA401B6428F7D98E
:1038C0000320BCE78F4DB2F5A02F2B6807D143F43E
:1038D00080232B602B6843F480332B60E4E723F4D0
:1038E00080332B602B6823F480232B60002ADBD1EC
:1038F000FDF7E2FA06462B689F03A6D5FDF7DCFA32
:10390000801B6428F7D9DBE77E4B9A6812F00C0F16
:1039100007D09A6802F00C02082A11D15B685E0297
:103920000ED4784B1A68950702D5E268012A85D132
:103930001A68216922F0F80242EAC1021A6087E798
:10394000E268714BB2B101221A60FDF7B5FA6D4D14
:1039500006462B68980707D52B68226923F0F803E1
:1039600043EAC2032B6073E7FDF7A6FA801B022827
:10397000EFD9A5E71A60FDF79FFA624E0546336856
:1039800099077FF565AFFDF797FA401B0228F6D936
:1039900096E762695D4B7AB101221A60FDF78CFAF5
:1039A000584E0546736F9F073FF556AFFDF784FAF3
:1039B000401B0228F6D983E71A60FDF77DFA514EC5
:1039C0000546736F98077FF547AFFDF775FA401B03
:1039D0000228F6D974E74B4B1A6C12F0805228D1AA
:1039E00001921A6C42F080521A641B6C03F08053EF
:1039F0000193019B0127464D2B68D9051BD5A36870
:103A0000404D012B27D12B6F43F001032B67FDF7AE
:103A100053FA3C4E054641F28838336F9B0739D53F
:103A2000002F3FF41DAF374A136C23F0805313640B
:103A300016E70027DFE72B6843F480732B60FDF760
:103A40003BFA06462B68DA05D9D4FDF735FA801B18
:103A50000228F7D934E7052B04D12B6F43F0040378
:103A60002B67D0E72A6F22F001022A672A6F22F023
:103A700004022A67002BCAD1FDF71EFA41F28838EA
:103A800006462B6F9807CBD5FDF716FA801B4045ED
:103A9000F7D915E7FDF710FA401B4045BDD90FE7F0
:103AA000184DAB6803F00C03082B3FF4C7AE194E5A
:103AB0000023022A336035D1FDF7FEF907462B6853
:103AC000990129D4D4E907321343626A43EA821385
:103AD000E26A43EA0263A26A5208013A43EA0243F5
:103AE0006B6001233360FDF7E7F9064D04462B6850
:103AF0009A013FF5B9AEFDF7DFF9001B0228F6D9B0
:103B0000DEE600BF0038024000004742800E474218
:103B10000070004060004742FDF7CEF9C01B02284C
:103B2000CDD9CDE6FDF7C8F904462B689B017FF59A
:103B30009BAEFDF7C1F9001B0228F6D9C0E600BF15
:103B4000134908B58B6803F00C03042B1CD0082B19
:103B50001CD14A684B68496813F4800314BF0D48B0
:103B60000D48C1F3881118BF002302F03F02A1FBEA
:103B7000000105F069FA064B5B68C3F301430133AA
:103B80005B00B0FBF3F008BD0248FCE70248FAE72F
:103B90000038024000127A000024F4002DE9F041C0
:103BA0000D46044610B90120BDE8F081434B1A6868
:103BB00002F00F028A4227D3226897072CD4D0073D
:103BC00040D43E4B1A6802F00F02AA4265D8226820
:103BD00051076BD4130707D5394A2169936823F439
:103BE000604343EAC1039360FFF7AAFF344B354AB1
:103BF0009B68C3F30313D35CD840334B18600F208A
:103C0000FDF754F90020CFE7CAB21A701B6803F021
:103C10000F038B42C7D1CFE7294B12F0040F1EBF11
:103C2000996841F4E0519960160742BF996841F4E0
:103C3000604199602249A0688B6823F0F003034338
:103C40008B60BCE762681E4B012A1CD11B6813F411
:103C5000003FA8D01A4EB36823F003031343B360A8
:103C6000FDF72AF941F288380746B368626803F025
:103C70000C03B3EB820FA4D0FDF71EF9C01B404527
:103C8000F3D9032090E7911E01291B6802D813F095
:103C9000007FDEE713F0020FDBE7EAB21A701B6861
:103CA00003F00F03AB427FF47EAF90E70449E06876
:103CB0008B6823F4E05303438B608BE7003C0240A6
:103CC00000380240ECB00008A8020020044B054A6E
:103CD0009B68C3F38223D35C034A1068D8407047C3
:103CE00000380240FCB00008A8020020044B054A3E
:103CF0009B68C3F34233D35C034A1068D8407047D3
:103D000000380240FCB00008A80200200F23036026
:103D10000B4B9A6802F0030242609A6802F0F002CC
:103D200082609A6802F4E052C2609B68DB0803F488
:103D3000E0530361034B1B6803F00F030B607047F4
:103D400000380240003C024070470000224A0368ED
:103D500090420ED0B0F1804F0BD0A2F57C42904241
:103D600007D002F58062904203D002F58062904253
:103D700015D14A6823F070031343174A904219D0B3
:103D8000B0F1804F16D0A2F57C42904212D002F5DD
:103D9000806290420ED002F5806290420AD00F4AB3
:103DA000904207D002F58062904203D002F5806213
:103DB000904203D1CA6823F44073134303608B68B5
:103DC000C3620B688362044B984204BF0B690363B0
:103DD00001234361704700BF0000014000400140E3
:103DE00010B50446A0B190F8393003F0FF021BB9BA
:103DF00080F83820FFF7A8FF0223206884F83930C4
:103E0000211DFFF7A3FF012384F83930002010BDE6
:103E10000120FCE7036A10B501248C4023EA040367
:103E20000362036A02FA01F10B43036210BD000052
:103E300010B5044601220068FFF7ECFF2368064A2C
:103E4000934202BF5A6C42F400425A641A6842F02C
:103E500001021A60002010BD000001402DE9F84366
:103E60000368C1681A69044622F440520A431A6181
:103E70002569A268D968C0692A43656921F4164199
:103E80002A4321F00C0102430A43DA605A69A1690E
:103E900022F440720A43B0F5004F5A61774A79D153
:103EA000934203D002F58062934243D1FFF71EFF95
:103EB000636819254FF0640868435B00B0FBF3F3B7
:103EC000B3FBF8F31F01FFF711FF636868435B0062
:103ED000B0FBF3F6FFF70AFF636868435B00B0FBD3
:103EE000F3F3B3FBF8F308FB1363DB003233B3FBEC
:103EF000F8F35B0003F4F876FFF7F8FE62686843B6
:103F00005200B0FBF2F9FFF7F1FE636822686843E4
:103F10005B00B0FBF3F3B3FBF8F308FB1393DB0098
:103F20003233B3FBF8F303F007033B4433449360AD
:103F3000BDE8F883FFF7CAFE636819254FF06408EF
:103F400068435B00B0FBF3F3B3FBF8F31F01FFF72B
:103F5000BDFE636868435B00B0FBF3F6FFF7B6FE97
:103F6000636868435B00B0FBF3F3B3FBF8F308FB53
:103F70001363DB003233B3FBF8F35B0003F4F87632
:103F8000FFF7A4FE626868435200B0FBF2F9FFF746
:103F90009DFEBAE7934202D0394A93423FD1FFF7E0
:103FA000A5FE636819254FF0640868439B00B0FBC9
:103FB000F3F3B3FBF8F31E01FFF798FE6368684361
:103FC0009B00B0FBF3F7FFF791FE636868439B002B
:103FD000B0FBF3F3B3FBF8F308FB13731B013233AD
:103FE000B3FBF8F303F0F007FFF780FE6268684365
:103FF0009200B0FBF2F9FFF779FE6368226868432C
:104000009B00B0FBF3F3B3FBF8F308FB13931B0126
:104010003233B3FBF8F303F00F033B4386E7FFF7BC
:1040200055FE636819254FF0640868439B00B0FB98
:10403000F3F3B3FBF8F31E01FFF748FE6368684330
:104040009B00B0FBF3F7FFF741FE636868439B00FA
:10405000B0FBF3F3B3FBF8F308FB13731B0132332C
:10406000B3FBF8F303F0F007FFF730FE6268684334
:104070009200B0FBF2F9FFF729FEBEE70010014005
:1040800000140140704710B5044640B390F8393031
:1040900003F0FF021BB980F83820FFF7F3FF226816
:1040A000242384F83930D36823F40053D3602046A6
:1040B000FFF7D4FE23681A6922F490421A615A6904
:1040C00022F02A025A61DA6842F40052DA600020D3
:1040D0002023E06384F8393084F83A3010BD0120A1
:1040E000FCE77FB502210F23CDE901314FF4805267
:1040F000002301A8CDE903320593FFF74FFDB0FA85
:1041000080F0400907B05DF804FB00000F49D1F8CA
:10411000883043F47003C1F888300D4B1A680020D2
:1041200042F001021A6098601A6822F0847222F448
:1041300080321A60074A5A601A6822F480221A6094
:10414000D8604FF000638B60704700BF00ED00E067
:10415000003802401030002410B58EB01D4B0024F2
:1041600000941A6C42F080521A641B6C1A4A03F0D5
:1041700080530093009B0194136823F4404343F45D
:1041800000431360136803F440430193A042019B72
:104190004FF0010302930CBF4FF480334FF4A02380
:1041A000039302224FF48003CDE9082308214FF442
:1041B000A8730420CDE90A130723CDE90C0302A854
:1041C000FFF738FB18B9FFF78CFF0EB010BD204683
:1041D000FBE700BF003802400070004010B58EB011
:1041E00000241A4B00941A6C42F080521A641B6C23
:1041F000174A03F080530093009B0194136823F443
:10420000404343F4004313601368039403F44043B2
:104210000193019B0323029301230593102306932B
:104220000A934FF4A8710423CDE90B13022207234C
:1042300002A8CDE908240D93FFF7FCFA18B9FFF79F
:1042400050FF0EB010BD2046FBE700BF0038024013
:104250000070004008B50120FFF77EFF28B9FFF786
:10426000BDFF10B90148FDF75FFA08BD8DAC00082D
:10427000174A1849936803F00C03042B10B50DD0AE
:10428000082B0DD0144B0B60114B144A9B68C3F3E1
:104290000313D25C0B68D3400B6010BD104BF2E7E8
:1042A0005468506852686302C2F388124CBF0C4BCA
:1042B000094B00F03F00B3FBF0F35343044A52684C
:1042C000C2F3014201325200B3FBF2F3DBE700BF5D
:1042D00000380240A80200200024F400ECB00008DE
:1042E00000127A00074B084A13601A69910707D534
:1042F000DA68920704D56FF002021A61FEF7EEB891
:10430000704700BF000C0040BC16002000487047FA
:1043100004B1000830B589B001A903A8FFF7F6FC85
:10432000FFF7D4FC002302931E4B01901A6C1E4C25
:1043300042F008021A641A6C02F008020292029A11
:104340001A6A42F008021A621A6A22F008021A6215
:10435000069AA3F50B3323604FF0FF33E360134B52
:10436000F2B9B0FBF3F00138002560600E4825611A
:10437000A5606561FFF734FD0D4B0E4A9B68C3F8DD
:1043800008210D4B4FF480225A6007482946FFF759
:104390004FFD2268D36823F00203D36009B030BD1B
:1043A0004000DEE700380240BC16002040420F000B
:1043B00000ED00E0E542000800E100E0044802688A
:1043C000D36823F00203D3600021FFF731BD00BFA3
:1043D000BC160020014B586A704700BF000C00401B
:1043E000054B1B686FF0020258631A61DA6842F0ED
:1043F0000202DA60704700BFBC160020064B1B6843
:104400006FF002021A615A6942F002025A61DA68D8
:1044100042F00202DA607047BC160020034B1A68B3
:10442000D36823F00203D360704700BFBC1600209E
:10443000024B1B686FF002021A617047BC16002025
:1044400010B50446806A064B236008B1FBF72EFFC7
:10445000236913B19B68201D9847204610BD00BFFB
:1044600048AD000810B50446806A084B236008B1C7
:10447000FBF71CFF236913B19B68201D984720465A
:10448000DC21FDF72FFD204610BD00BF48AD000820
:10449000042815D82DE9F04182B001AA69460446E6
:1044A00000F0A8F8009B204D03EB430305EB8300CD
:1044B000037A3BB1052B00D0002002B0BDE8F081AB
:1044C00000207047DC20FDF7F9FC019B03EB430360
:1044D000064635F92380009B03EB4303414635F93B
:1044E00023703A46FCF758F9009B104AC6F8D020D2
:1044F00003EB430305EB8300019BA6F8CC8003EBA1
:10450000430305EB830505221023A6F8CE70466011
:10451000C6F8D4406E602A7286F8D830044B027216
:10452000336002B0BDE8F08100030020A0860100E6
:1045300014B1000870B582B09DF818C030B30446BD
:10454000BCF1000018BF0120009060684900FCF732
:1045500066F820B9636883F8D80002B070BD65685A
:1045600005F130063046FCF764FE3046FCF773FE7A
:10457000B5F9CE20B5F9CC103046FCF74BFE2846F5
:10458000D5F8D010FBF7FAFF0420E3E7102002B0C3
:1045900070BD00BF70B582B09DF818C030B304463E
:1045A000BCF1000018BF0120009060684900FCF7D2
:1045B00015F820B9636883F8D80002B070BD65684B
:1045C00005F130063046FCF734FE3046FCF743FE7A
:1045D000B5F9CE20B5F9CC103046FCF71BFE2846C5
:1045E000D5F8D010FBF7CAFF0420E3E7102002B093
:1045F00070BD00BF0138032810B40AD8084C094B1D
:1046000054F8204053F820300C605DF8044B1360E0
:1046100070470F240E230C605DF8044B1360704745
:1046200034B1000824B1000800207047002838D0B9
:10463000F8B50D46002931D01B4E1C4F0446002210
:10464000D6E900014FF0404304F096FC08BBD6E9E0
:104650000023C5E900236368154A16481968D6E99E
:1046600000455C6811600460D3E90240124A134BB4
:1046700013491460002208601A6000F077FD114BA6
:10468000C3E9007700F070FC10B90F4B01221A70DB
:10469000F8BDD5E90023C6E90023DCE74FF0FF3081
:1046A000F8BD4FF0FF307047B8020020BD51000840
:1046B000F4080020F0080020EC080020E4080020A6
:1046C000E8080020C8070020F80800202DE9F04F76
:1046D0002D4FDFF8B8B097F800A0022383B05FFA3F
:1046E0008AF28BF800303B7801920646C0B9B3B924
:1046F000DFF89C8098F800203B78B2FA82FA4FEA03
:104700005A1A93B103238BF80030BAF1000F37D156
:104710000024019B3BB3204603B0BDE8F08F3B78FB
:1047200003F0FF0A2BBBDFF86880002442F2107907
:1047300011E0BAF1000F20D14C44FEF7FBF9A6427C
:1047400028462CBF4FF0000A4FF0010A00F038FC59
:104750003B78002BD6D198F800300A2003F0FF05F3
:10476000002BE6D0CEE700F0E1FF204603B0BDE825
:10477000F08F03238BF80030CAE703238BF8003057
:104780006FF06304C5E700BFFA080020F8080020B6
:10479000F9080020F8B557EC106B044600220023FE
:1047A0003046394604F0F2FBA0BBFF2C32D81B4B3D
:1047B0001A78032A0FD01A78012A0CD0012C0ED9AE
:1047C00047EC106B204600F03FFB01462046BDE859
:1047D000F84001F077B90422012C1A70F0D8104D7E
:1047E00055F82430002BEBD001F078F90228E7D1FE
:1047F00055F824302046984747EC106B0546204674
:1048000000F022FB0146002DE0D1204601F082F9A4
:104810002846F8BD4FF0FF30F8BD00BFF808002073
:10482000C8070020002000F0CBBB00BF70B5074ECA
:104830000623337000F014FC054B00250446C3E941
:10484000005500F011FF3570204670BDF8080020BB
:10485000C8070020014B1878704700BFF9080020F6
:10486000014B1878704700BFE00800202DE9F043A5
:10487000404B414CD3E9006787B0D4E9040132468C
:104880003B4604F079FB08B9C4E90467E269D268E1
:104890000023557996680493ADF814303222012430
:1048A00030688DF80F2001930DF10F02009423461C
:1048B0002946FFF76FFE02468DF80F00002850D002
:1048C000BDF91030DFED2D5A2D4C9FED2E6AA56AF3
:1048D000E06A06EE903ABDF9123007EE103ABDF9E3
:1048E000143007EE903AF8EEE66AB8EEC77AF8EEC2
:1048F000E77A66EEA56A27EE257A67EEA57A224B5F
:1049000066EE866A27EE067A67EE867A0135C3ED93
:10491000006A83ED017AC3ED027AA5620DB9013018
:10492000E062D4E90C6704F045F832463B4604F0F7
:10493000BBF8164B002204F0B7F88046284689469B
:1049400004F038F832463B4604F0AEF802460B4617
:104950004046494603F0F2FEC4E9080107B0BDE84D
:10496000F08330680623CDE90024294604AAFFF726
:10497000E1FDA5E7B0020020380800200000803BE0
:10498000F0070020C3F51C41A80800200000F041FA
:104990002DE9F043C24BDFF83893C24C85B0482272
:1049A0000021184605F09FFC0346BBA1D1E9000198
:1049B000BD4AC3E90C01BD48BD491160C3E90120EE
:1049C000BC480025C0E900558560BB48C1E900002E
:1049D000BA48BB49C3E90301BA4959614FF000081D
:1049E00003F11801C3E90E89916003F10801203336
:1049F0005160D36029467022204605F074FCB24B0A
:104A0000D3E900230126C4E9042384F8306084F844
:104A10006C606660EFF3108762B62346E3E918899D
:104A2000A361A3632346002243F84C5FA3640023E1
:104A3000C4E91623C4E9142329464FF4A6432846A3
:104A4000A4F8443065632564FFF722FD04F14003B8
:104A5000E363A36CE0641868CDE900552D2394F856
:104A60004510ADF80C3003AA0223FFF793FDE36B6A
:104A70008DF80A50D3F8088093F80590D8F8000014
:104A80003346CDE900650DF10A024946FFF782FD84
:104A90008DF80A00002800F0C880E26B966892F852
:104AA0000580306800238DF80B30019301253123F8
:104AB0008DF80A300DF10A0200952B464146FFF7AA
:104AC00069FD02468DF80A00002800F0DB809DF8A1
:104AD0000B30E26B23F003038DF80D3093685179AE
:104AE0001868002531238DF80C3003AA0223CDE984
:104AF0000055FFF74FFDE36B8DF80B50D3F808809E
:104B000093F80590D8F8000001262C238DF80A3080
:104B10000DF10A02CDE9006533464946FFF73AFD3B
:104B200002468DF80A00002800F0A1809DF80B30A5
:104B3000E26B23F00F0343F00E038DF80D30936802
:104B40005179186800252C238DF80C3003AA022314
:104B5000CDE90055FFF71EFDE36B8DF80B50D3F840
:104B6000088093F80590D8F80000012631238DF8CD
:104B70000A300DF10A02CDE9006533464946FFF7D8
:104B800009FD02468DF80A00002865D09DF80B301B
:104B9000E26B43F008038DF80D3093685179186883
:104BA000002531238DF80C3003AA0223CDE90055EE
:104BB000FFF7F0FCE36B8DF80B50D3F8088093F807
:104BC0000590D8F8000001262D230DF10A028DF87A
:104BD0000A30CDE9006533464946FFF7DBFC024663
:104BE0008DF80A0068B3E36B986859799DF80B302B
:104BF000006843F008038DF80D3000252D2303AA2B
:104C00008DF80C30CDE900550223FFF7C3FC2F4B84
:104C100084F83050A3F10802C4E9073287F3108802
:104C20000123237205B0BDE8F08303464946D8F856
:104C300000000DF10A02CDE900363346FFF77AFC99
:104C40002BE7D8F800003346CDE9002649460DF1A0
:104C50000B02FFF76FFCC6E7D8F800003346CDE93A
:104C6000002649460DF10B02FFF764FC8EE7D8F8E9
:104C700000003346CDE9002649460DF10B02FFF74F
:104C800059FC53E730682B46CDE9002541460DF12C
:104C90000B02FFF74FFC1AE77B14AE47E17A543F53
:104CA000F007002038080020D807002073AEC3E1C9
:104CB000D0070020A808002044B10008C271E6EF28
:104CC00061077918D9D108DDB002002068080020FA
:104CD0000000F0BF084B1A780AB901221A7093F845
:104CE000302042B95A6B01218A4208BF022283F860
:104CF000301008BF5A6370473808002038B52DEDD2
:104D0000028B114D2C78631C2B7034B12C70BDECD0
:104D1000028B0E4B01221A6038BD62B60C4B1B6829
:104D200093ED088BFFF7A2FDB0EE480AF0EE680A9B
:104D30002046FFF72FFD72B62C78013CE4B22C70B0
:104D4000BDEC028B38BD00BFB6080020B8080020BB
:104D500048B100082DE9F041374C384D0027277045
:104D60002F7001DF364EFDF7CBFE03F0D5F9FFF7CC
:104D70007FFAD6F800803946C8F800703846FFF749
:104D800053FC08B1BDE8F081FFF702FED8F804003B
:104D900008F13801FFF74AFC002837D09FED290AB7
:104DA00003F0E0F9FFF75CFD00283BD00023DBB205
:104DB0002B7062B608E0012323702378B3FA83F3E3
:104DC0005B092B702378D3B92B7803F0FF0783B1ED
:104DD000FFF728FDFFF744FD0028ECD1FFF73AFD6F
:104DE0000028E8D1336893F84030003B18BF012316
:104DF000E2E7FFF76FFFFFF719FD3846C2E74FF014
:104E0000E022136923F001031361DDE74FF0FF3067
:104E1000FFF75CFCFFF71EFD0028BFD0012388F8D8
:104E20004030BBE7FFF716FD0028BFD198F84030AF
:104E3000B3FA83F35B09BAE7B5080020B408002091
:104E400048B100080AD7A33A2DE9F04155EC104BC0
:104E5000B0B143A3D3E900232046294603F024FE42
:104E6000374B002203F06AFC9FED311B41EC100B25
:104E700003F0A2FA51EC100B04F0C6F8BDE8F08183
:104E8000304B00222046294603F00EFE06460F4610
:104E90009FED271B47EC106B03F08EFA51EC100BC3
:104EA00004F0B2F824A3D3E9002380463946304603
:104EB00004F08AF840B120A3D3E9002330463946F4
:104EC00003F01CFF04F0A0F81F4B204EC3F8008035
:104ED0005860D6E900011E4B002204F04DF800BBDB
:104EE000D6E9000100224FF0404304F045F8C0B974
:104EF000D6E9000122462B4603F01EFC154B064660
:104F00000F4600222046294603F0CEFD0B460246FE
:104F10003946304604F03AF80F4B003818BF0120EC
:104F200018700E4BC3E9004593E700BFAFF3008054
:104F3000000000000000F0410000E0FFFFFFEF4133
:104F40000000E03F00408F40C8080020B802002069
:104F50000000F0BF0000B03CE0080020C0080020C6
:104F60000000000080842E4100B59FED117B1249A6
:104F7000124A83B081ED007B00200021C2E90001CC
:104F8000002301A96846CDE9003302F0B1FFDDE955
:104F9000000101F05FFF38B901A9684602F0AEFFD9
:104FA000DDE9000100F08AFC03B05DF804FB00BFFE
:104FB0000000000000000000D8080020D0080020F9
:104FC00038B504460020FDF7B5FDACB302F02EF86D
:104FD000044630B1811C20D00020FDF7ABFD2046F7
:104FE00038BD00F08BFC044670B10125A21CF3D142
:104FF00001F0D2FF044668B1A31C4FF0000013D0AB
:10500000FDF798FD204638BD01F0C6FF0125044696
:105010000028F1D1FDF78EFDD8E700F06FFC0446C3
:105020000028F1D00025E1E7FDF784FD002DCDD16A
:105030006FF00104204638BD01F0F8FF044608B1C6
:10504000831CCCD100F05AFC044608B1A51CC6D183
:1050500001F0A2FF04460028C1D0A01CBFD1E7E7A1
:1050600070B5374D2B78002B5DD100F037FD60B364
:105070004FF4FA6407E00020FDF75CFD00F02EFD20
:10508000013C22D008B30A20FDF754FD0020FDF7B3
:1050900051FD01F0CBFF002839D00230EBD100F0F8
:1050A0002DFC002838D000260230E4D101F074FF36
:1050B0000028EBD00230DED1002EE7D10020FDF732
:1050C00039FD00F00BFD013CDCD100F00DFD02F0DC
:1050D000C7F81C491C4A1D4C1D4E00230B701D496E
:1050E00013609FED136B0B7053601B491B4A2360C9
:1050F0009FED117B136081ED006B194C19491A4A21
:10510000336023600B6082ED007B2B7070BD00F07C
:10511000F5FB08B10126C7E701F03EFF0028B5D036
:105120000230A8D1B2E7002000F0F2FC9DE700BFFA
:10513000000000000000000000000000000000C0AF
:10514000E0080020FA080020C8080020F408002029
:10515000EC080020F9080020C0080020F00800201A
:10516000E8080020E4080020B802002030B40B4B0F
:105170000B4A0C4D12780C4C00200021C3E90001B1
:105180000A4B0B491A700B4B0B4A002028702070F9
:105190000870187030BC1060704700BF080900200C
:1051A0001209002007090020050900200609002037
:1051B0000409002010090020000900202DE9F04F0B
:1051C000984D83B00446002835D1974B29781A783A
:1051D0002878187091423ED0944E954B34701C70D4
:1051E0002B78944F944A3C70012B146037D02B7865
:1051F000012B00F0D5809149337803F0FF02002B9A
:1052000040F0C2808E488B4F02700B783A70002BB2
:1052100041D0022333700A702C78B4FA84F4640904
:105220003378042B00F20382DFE813F051004201CF
:105230002E013F002C012B78012B19D0814B1B78BC
:1052400023B97B4B187803B0BDE8F08F7E4B1878FC
:1052500003B0BDE8F08F2B78744E012BC7D13378A3
:10526000002B3ED175490B78002B3AD0724A41E0B1
:10527000764B1B889BB29842E0D1754A1368002B8D
:10528000DCD074490978002900F06181674E3278DA
:10529000022AD3D14BE0664B3278042A00F2CE8149
:1052A000DFE802F016B80E049D00614B624A1168F7
:1052B000002900F0DB8001391160002900F0D68060
:1052C0001878604B00221A7003B0BDE8F08F584B7D
:1052D0000A78002AF4D002200022307018780A7070
:1052E000EFE73378012B82D1534A1368012B7FF407
:1052F0007EAF524900230B701360022333702B786A
:10530000012B7FF479AF514B1B889BB2002B7FF4AC
:1053100073AF4F4A1368002B3FF46DAF4D490978C6
:10532000002900F0EC803278022A7FF464AF414F0C
:105330003A782ABBDFF82C9193ED007B99F8003086
:105340008DED007B8BB1444B1978002900F005816D
:105350001978022900F001811978012900F0628191
:105360001B78022B00F05E811346DFF8FC809DED78
:10537000007BB3FA83F388ED007B5B0989F800308A
:10538000002C7FF45BAF36E72D4800220A700378CB
:1053900003F0FF0C5BB1264B32701A7002707BE792
:1053A0002A4B1B889BB2002B7FF425AFB1E72B78EB
:1053B00083B93378042B00F2438101A252F823F021
:1053C000CF520008CB5400088B540008AB520008A1
:1053D000C5540008174F3C7887F800C020E7002428
:1053E000154A116821B10139116000297FF468AFB5
:1053F0001A490978012900F08E80194908680028A7
:1054000000F08D800020096818700123116033704E
:10541000002056E708490A68002A67D10222187856
:1054200032704EE712090020060900201009002002
:10543000050900200409002000090020C002002006
:1054400013090020FB080020FC0800203009002080
:105450002C0900202809002014090020110900202F
:105460001C0900200709002008090020764801686F
:10547000002941D0016811600120187004233370A5
:1054800001201EE7714BABE7D4B1714B1A68002ABB
:1054900002DD2A78012A4ED06B4A136813B36B4B96
:1054A0006C4912680A600120187004233370E7E722
:1054B000684A1368002B3AD0013B1360002B36D0AA
:1054C000624BFDE6614B01248AE7624A13681BB117
:1054D000013B1360002BF3D15B490B6813B15B4BAD
:1054E0000968C8E7594A3370137091E7013A0A60B6
:1054F000002A7FF4E5AE91E71970317088E71268F1
:10550000002A3FF478AE3278022A3FF410AF002C24
:105510007FF494AE6FE600221A70327078E794B18F
:10552000494804210468146018783170C9E6002CD9
:10553000D2D1464B72E7474A444819680078116057
:1055400003233370BDE602221C70327060E71268DC
:10555000002A3FF473AE404ED5E71A78012A5FFA6D
:1055600082FB07D093F800B0ABF10203D3F1000B3C
:105570004BEB030BDFF8E8A0DFF8E880DDE9000182
:10558000DAE9002303F016FD00283AD0DAE9002317
:10559000D8E9000103F0FAFC002832D02C4B1B683C
:1055A00013B92A4B01221A7001233B70BBF1000F83
:1055B00025D0DAE90023DDE9000103F0E7FC78B14A
:1055C000DAE90023D8E9000103F0F4FC40B1204BF4
:1055D0001B6813B91D4B01221A7001233B70C6E6EC
:1055E000DAE90023DDE9000103F0C6FC38B1DAE9AD
:1055F0000023D8E9000103F0E7FC0028E7D13B785D
:10560000B5E6DAE90023DDE9000103F0DDFC00285E
:10561000CCD0DAE90023D8E9000103F0ADFC002882
:10562000C4D0BBE7DFF838A0DFF83880C1E7074B0C
:10563000002202701A703A703270E9E6074FF7E7FD
:10564000024B064FF4E700BFC4020020050900200A
:10565000180900200009002010090020040900207A
:10566000200900200809002030B41B491B4C1C4DA8
:105670000020002200230870C4E90023194C1A49B5
:1056800020700870194C1A4920800870194C1A496A
:1056900020700860194C1A4920700870194C1A497A
:1056A0002060087019491A4CC1E900234FF47A733D
:1056B0002B601849184A194B08604FF0010C106014
:1056C00017492070174A83F800C0174B08701070F4
:1056D000187030BC704700BF07090020080900207F
:1056E000C402002010090020060900203009002013
:1056F000050900200409002000090020FC08002002
:10570000FB0800202C090020280900202009002087
:10571000140900201C09002018090020C0020020E4
:10572000130900201209002011090020104B1B78DA
:1057300093B9104B1A7882B90F4A12784AB11B7884
:1057400003F0FF022BB90D480D4B027001211970B7
:1057500070470B4B00221A707047074A11780029D6
:10576000EBD10649064A01230B701370704700BF46
:1057700012090020C002002013090020FC080020AC
:10578000FB080020022313604FF0FF30704700BF7A
:1057900010B5144608B101F0A1FE0020206010BD34
:1057A00010B9FF230B707047FE2310300B700F28C9
:1057B00036D8DFE800F0322F2C292623201D1A17B7
:1057C00014110E0B083522234B70704730234B7099
:1057D000704729234B70704700234B707047232379
:1057E0004B70704721234B70704711234B707047EB
:1057F0002A234B70704727234B70704710234B7040
:10580000704724234B70704728234B707047262322
:105810004B70704731234B70704733234B70704788
:1058200020234B70704700BF014B1870704700BFBA
:1058300048090020014B1878704700BF4709002035
:10584000024B1A7810431870704700BF47090020B8
:10585000024A137823EA00031370704747090020B7
:10586000014B1878704700BF46090020014B18888B
:10587000704700BF44090020E1B1EAB100B5002340
:10588000864691F800C0F445084603F1010309D0AB
:1058900093420CD091F80CC00C31F445084603F14A
:1058A0000103F5D19A4203D011B90C21E9E7002098
:1058B0005DF804FB084670471046704770B50D4E02
:1058C00034789CB900F03AFA00F040FA0A4D2860AA
:1058D00000F0E4FE00F0FCFEA86001F08BFA01F09D
:1058E00091FA012333706860204670BD6FF00B00A1
:1058F00070BD00BF49090020340900202DE9F041A6
:105900006C4B88B01B780020CDE90300CDE9050081
:105910000790002B00F0B88006AB009304AA05ABFB
:1059200003A901F0B1FB044603988CB9002800F0EC
:10593000BE80DDE90513049A01EB030C944511D9EF
:105940006FF0070401F0CAFD204608B0BDE8F08101
:10595000631DDBB2012BE9D90028F3D1204608B042
:10596000BDE8F081544A1678425CC02A00EB01057C
:1059700021D0A6B1F02A62D90026504B53F8263028
:10598000002B52D01046984700284CD0D0E901385F
:105990000398FBB96FF00B040028DFD0D2E7FF2A91
:1059A00014D1464B1B68002B46D010469847002860
:1059B000ECD10398EEE7012B06D93EB16B78013BA1
:1059C000012B32D80226D8E7002E2ED107AAFFF7E6
:1059D000DFFEB9E7059907AA98470646B8F1000F18
:1059E000B2D0079F002FAFD0069A97422ED8002141
:1059F000284604F078FC059B0399079A1944304621
:105A0000C047DDE90432079C4FF6FF71CDE9002461
:105A10000120039A01F07AFA0446002894D00398F2
:105A200000289BD08EE705990398DFF8948007AA99
:105A3000FFF7A8FE0646D4E76FF00B0482E702F1F9
:105A40001C03DBB20C2B22D8012696E701F002FCE6
:105A50000446039801F042FD0021384601F05EFB48
:105A6000049001F055FB04990590E1B1204601F046
:105A70004BFF069A03900028B9D10146284604F04E
:105A800032FC6FF009045FE76FF008045CE702F195
:105A90002D03DBB20F2B95D902F13803DBB20A2BB1
:105AA000C3D8032669E7069A284604F01CFC6FF069
:105AB000070449E74909002048090020340900206B
:105AC000A1570008044B1B7813B1002200F006BE5A
:105AD0006FF00800704700BF49090020014B18789B
