:020000040800F2
:1000000000800120E12A00082D2B0008A10C000827
:10001000A90C0008B10C0008B90C00080000000091
:100020000000000000000000000000004DB50008C6
:100030002D2B00080000000009B5000849B4000895
:100040002D2B00082D2B00082D2B00082D2B000830
:100050002D2B00082D2B00082D2B00082D2B000820
:100060002D2B00082D2B00082D2B00082D2B000810
:100070002D2B00082D2B00082D2B00082D2B000800
:100080002D2B00082D2B00082D2B00080000000050
:100090000000000000000000000000002D2B000800
:1000A0002D2B00082D2B00082D2B00082D2B0008D0
:1000B0002D2B00082D2B00082D2B00082D2B0008C0
:1000C0002D2B00082D2B00082D2B00082D2B0008B0
:1000D0002D2B00082D2B00082D2B00080000000000
:1000E0002D2B00082D2B00082D2B000800000000F0
:1000F0000000000000000000000000002D2B0008A0
:10010000000000002D2B00082D2B00082D2B0008CF
:1001100000000000000000000000000000000000DF
:100120002D2B00082D2B00082D2B00082D2B00084F
:100130002D2B00080000000000000000000000005F
:100140000000000000000000000000002D2B00084F
:100150002D2B00082D2B00082D2B00082D2B00081F
:100160002D2B00082D2B00080000000000000000CF
:10017000000000000000000000000000000000007F
:10018000000000002D2B000800000000000000000F
:100190002D2B00080348044B834202D0034B03B1CC
:1001A00018477047800600208006002000000000ED
:1001B0000548064B1B1AD90F01EBA301491002D0C9
:1001C000034B03B1184770478006002080060020CB
:1001D0000000000010B5064C237843B9FFF7DAFFA2
:1001E000044B13B10448AFF300800123237010BD0A
:1001F000800600200000000038E9000808B5054B23
:100200001BB105490548AFF30080BDE80840FFF782
:10021000CFBF00BF000000008406002038E90008BE
:10022000A3F5803A704700BF174B002B08BF134B54
:100230009D46FFF7F5FF00218B460F461348144AF1
:10024000121A0DF06EFB0E4B002B00D098470D4B91
:10025000002B00D098470020002104000D000D481D
:10026000002802D00C48AFF300800DF0E1FB200025
:10027000290005F0D7F80CF07DFB00BF0000080056
:10028000000000001D2100080080012080060020E1
:10029000F016002000000000000000000346006887
:1002A00018B9186808B9181D18607047024B1B6808
:1002B00003B11847704700BF9C060020C36810B503
:1002C00004460BB19B689847204610BD07B50190C6
:1002D00001F0B2F90198012100F0F8FD03B05DF8DA
:1002E00004EB01F0B3B907B5019001F0A5F901984D
:1002F000002100F0EBFD03B05DF804EB01F0A6B9BE
:1003000007B5CDE9001001F097F9DDE9001000F024
:10031000D9FD03B05DF804EB01F098B9007B70479C
:1003200038B50B4B03600023C0E9013104460D468C
:1003300002730848FFF7B2FF45B1074B1A686260C5
:100340001C600448FFF7AAFF204638BD6560F8E747
:100350001CE30008A4060020A006002010B5124BE4
:10036000036004461148FFF799FFA3682BB11049B9
:1003700062680B68A34210D10A600E4B0B481A68E2
:10038000A24204BF00221A60FFF788FF237B13B943
:10039000201F01F0C3FD204610BD19465B68A34233
:1003A000FBD14A60E9E700BF1CE30008A406002077
:1003B000A0060020AC06002010B50446FFF7CEFFD3
:1003C0002046102101F0A6FD204610BDF8B50646D6
:1003D00014480D46FFF762FF134B1C6894B1A768E1
:1003E00077B138460DF0BAFBA84209D12A4631460A
:1003F00038460DF06CFA18B90A48FFF74FFF0FE0C6
:100400006468EBE7072DF7D108482A4631460DF01E
:100410005EFA0028F0D10348FFF740FF044B1C6848
:100420002046F8BDA4060020A0060020A8E0000891
:10043000AC060020002070470020704703680122AE
:100440001B6900211847036800221B6911461847E1
:100450006FF01500704703681B69184703689B69B4
:10046000184703689B6A184700290CBF6FF01800F3
:1004700000207047012070476FF0150070476FF043
:1004800015007047112070477047036870B51B69ED
:100490000122002104469847051E0DDB2368022235
:1004A0001B690021204698472368064629461B6998
:1004B0000022204698473546284670BD70B50D4647
:1004C0000026C0E900660C49044628460DF031FAC2
:1004D00028442060314623681A782F2A06D1013338
:1004E0002360FFF773FF6060204670BD002AF8D0DC
:1004F000013301312360EEE7B0E000080068704787
:10050000406808B520B1FFF709FF431E5842584123
:1005100008BD10B50446FFF7F3FF10B1606800B1E5
:10052000043810BD406808B520B1FFF7F7FEB0FAF7
:1005300080F0400908BD10B50446FFF7F3FF10B185
:10054000606800B1043810BD4068003818BF012051
:100550007047416830B4034671B1D0E9032000F020
:10056000010402B944B1451001EB60000CB14959D6
:100570008A58996830BC104730BC7047036870B522
:1005800004460D461B68984704F13000C4F8C45077
:10059000294600F0A3FD044B1C60236820465B68DD
:1005A000BDE87040184700BFB8060020036870B56A
:1005B000094D1B68044698472B68A34206D0D4F81F
:1005C000C41004F1300000F089FD2C60236820463F
:1005D0005B68BDE870401847B80600207FB51D462F
:1005E00003680446CDE902211B6898472046FFF7BF
:1005F000DDFF9DF8203083F00103DDE90221009347
:1006000004F130002B4600F0A7FE236806465B6825
:1006100020469847A81B18BF012004B070BD7FB5C5
:100620001D4603680446CDE902211B689847204611
:10063000FFF7BCFF9DF8203083F00103DDE90221C4
:10064000009304F130002B4600F02AFE2368064692
:100650005B6820469847A81B18BF012004B070BDF6
:1006600070B590B00D46144600211C2202A80DF072
:1006700058F9012600231A46294602A8009601F0DF
:100680008BF91C22002109A80DF04BF900231A4612
:100690000096214609A801F07FF90A9B1A68099B78
:1006A0001A4203D16FF0010010B070BD039B1968AE
:1006B000029B194043D109A8FFF722FE09A8FFF7C2
:1006C00005FE0A24002109A8FFF71AFE099B0C9ACF
:1006D0001B041360052001F023FF012109A8FFF787
:1006E0000FFE0B9B099A1A60052001F019FF013CCF
:1006F000E8D102A8FFF7EAFD029B059A1B041360EC
:10070000052001F00DFF0B9B099A1A60052001F0EE
:1007100007FF049B029A1A60052001F001FF02A85E
:10072000FFF7E1FD09A8FFF7DEFD0A9B1A68099BA8
:100730001A42B7D0039B1A68029B1A42B2D000201B
:10074000B2E7C36810B504460BB19B6898472046D2
:1007500010BD0000064B10B504460360806A08B166
:10076000FFF7A4FD201DFFF7ECFF204610BD00BFE2
:1007700088E3000810B50446FFF7ECFF2046CC21C3
:1007800001F0C8FB204610BD08B50248FFF786FD02
:1007900008BD00BFB00600201C4B2DE9F041044607
:1007A0000D46164640F8043B102200210DF0B9F822
:1007B00004F130080021164BA185C4E90711C4E9F2
:1007C0000911144F63619422A46140460DF0A9F809
:1007D000114BC4F8C4303846FFF760FD3246294655
:1007E000A4F8C850A4F8CA602046FFF739FFB4F94E
:1007F000CA20B4F9C810404600F024FD074B384623
:100800001C60FFF74BFD2046BDE8F08188E300083F
:1008100053050008B0060020A0860100B80600209D
:10082000036818470B68036070477047884238B503
:1008300004460D460ED0FFF741FD10220021204650
:100840000DF06FF8EB681BB15B68294620469847AE
:10085000EB68E360204638BD10B5044621B910228C
:100860000DF05FF8204610BD0022034B426082600D
:100870000160C360F6E700BF98E30008704700F02E
:100880008DB8A0F1B400FFF7FABF00F08AB8A0F16C
:10089000B400FFF7FABF00000A4B10B503F10802DD
:1008A000026003F1280294330446C0F8B420C0F873
:1008B000B830B43000F0C4F9204600F01DF92046ED
:1008C00010BD00BFB8E40008A0F1B400E4E7A0F157
:1008D000B800E1E710B50446FFF7DEFF2046D0215F
:1008E00001F018FB204610BDA0F1B400F2E7A0F122
:1008F000B800EFE77047704738B504461D46049BC3
:1009000000F056F8294604F1B40000F071F9064BE6
:1009100003F10802226003F128029433C4F8B420E2
:10092000C4F8B830204638BDB8E40008704701F17B
:10093000090300EB0313DA6832B100EB011118462A
:10094000D1F89C20126810477047416830B40346C4
:1009500071B1D0E9032000F0010402B944B145109F
:1009600001EB60000CB149598A58996830BC1047B6
:1009700030BC704770B50646044656F8443B0D46F9
:100980001B6898473046294601F012FF2368C4F8D7
:10099000B05020465B68BDE870401847443002F014
:1009A0007BB810B544300C4602F088F8204610BDE4
:1009B0002DE9F04F87B0002501932F4B03601026DF
:1009C0002E4B43600446C0E90355C0E905558846EF
:1009D0009146858332462946806020300CF0A1FF85
:1009E00004F144073246294604F130000CF099FF27
:1009F00004F1900A2946A4F840504C2238460CF0E5
:100A000090FF04F1A00B3246294650460CF089FFB6
:100A10003246294658460CF084FF019BC4F8B0309A
:100A20003246294602A80CF07CFF02A95046FFF787
:100A3000FDFE02A8FFF742FC3246294602A80CF050
:100A400070FF02A95846FFF7F1FE02A8FFF736FC37
:100A50004A464146384601F0C5FED4F8B010384643
:100A600001F0A6FE38460649224601F0B9FF2046AD
:100A700007B0BDE8F08F00BF5CE500084B09000837
:100A80002F0900082DE9FF41036815460F4604466B
:100A90001B6805F10906984704EB061600F0CCFD2B
:100AA000FA68F36804F14408A2B10BB900F0FAFF48
:100AB00039463046FFF7BAFE01222946404601F08A
:100AC0009BFF00F0C3FD236820465B68984704B095
:100AD000BDE8F0810BB100F0F9FF1022002168465B
:100AE0000CF01FFF69463046FFF7A0FE6846FFF78F
:100AF000E5FB0022E1E700001FB51A4B0360044646
:100B00001022002168460CF00CFF002269462046A6
:100B1000FFF7B8FF6846FFF7D1FB102200216846B7
:100B20000CF0FFFE012269462046FFF7ABFF684646
:100B3000FFF7C4FB04F1A000FFF7C0FB04F1900035
:100B4000FFF7BCFB04F13000FFF7FBFD04F12000D0
:100B5000FFF7F7FDA06908B1FFF7A8FB204604B036
:100B600010BD00BF5CE5000810B50446FFF7C4FFE8
:100B70002046B42101F0CEF9204610BD70477047E1
:100B800000207047F8B50368DB6D0D4604468F18EA
:100B900098472E46BE42236806D05B6D16F8011BAF
:100BA000204698470130F5D1236820461B6E9847B0
:100BB000701BF8BDF8B50368DB6D0D4604468F1851
:100BC00098472E46BE42236807D09B6D2046984723
:100BD000431C02D006F8010BF4E7236820461B6E85
:100BE0009847701BF8BD0020704700207047704781
:100BF0000F4B13B50022044640F8043BFFF790FB6F
:100C00000C4B23606C336360002363610A49204608
:100C100001F0CCF90346606128B900900246014614
:100C2000064800F0ADFD00F0EBFF204602B010BD1D
:100C30002CE30008E0E50008B2E00008190101809B
:100C40000A4B03F10802743310B504460260436096
:100C500040690CF035F9064B236020465C3340F8C0
:100C6000043FFFF77BFB204610BD00BFD8E500081E
:100C700074E5000838B503680446DB6D0D469847F7
:100C80000122606900210CF063FB616928460CF0C9
:100C900055FB236805461B6E20469847284638BDFD
:100CA0004FF0100300F00CB84FF0200300F008B82C
:100CB0004FF0300300F004B84FF0400300F000B8EC
:100CC000EFF308804FF0040172460A4201D0EFF3BF
:100CD00009809C46254B196802680A600431426805
:100CE0000A60043182680A600431C2680A60043113
:100CF000F0C147460F6004314F460F60043157463C
:100D00000F6004315F460F60043102690A600831E8
:100D100042690A60043182690A600431C2690A606A
:100D20000431034620334FF40076324200D00433BE
:100D300075464FF01006354200D148330C46103C42
:100D40002360EFF309820A600431EFF308820A603E
:100D5000043172460A600431EFF314820A6060467F
:100D6000024B196800F094FDFEE7000054E600080D
:100D700030B591FAA1F391FAA1F1B3FA83F30468C3
:100D80005B000325B1FA81F105FA03F3490024EA77
:100D900003038A401343036030BD00007FB52B4B33
:100DA000002207284FD8DFE800F004121E2A364E32
:100DB0004E4200921A6B264842F001021A631B6BE6
:100DC00003F001030093009B07B05DF804FB019260
:100DD0001A6B204842F002021A631B6B03F00203F5
:100DE0000193019BF0E702921A6B1B4842F0040248
:100DF0001A631B6B03F004030293029BE4E7039264
:100E00001A6B164842F008021A631B6B03F00803C2
:100E10000393039BD8E704921A6B114842F0100227
:100E20001A631B6B03F010030493049BCCE7059239
:100E30001A6B0C4842F080021A631B6B03F08003AC
:100E40000593059BC0E7084800F086FC0038024087
:100E5000000002400004024000080240000C024072
:100E600000100240001C0240B5E0000810B54FF42D
:100E70007071044604F00F0401F08EFB0120A040C5
:100E800010BD00004B1C70B504460E46018216D002
:100E9000C1F30310FFF782FF05463046FFF7E6FF78
:100EA000238A074A656103F00F03206052F823305C
:100EB000A36105F110031835C4E90255636070BDE4
:100EC000F8E60008B0F9100001F0E2BB0A46D0E9EC
:100ED00005010AB9FFF74CBF0122FBE708B503F093
:100EE00031FA002008BD000008B50A4B1B684BB161
:100EF00001F008FB01F0F4FA4FF47A7200230BF0D2
:100F0000C1FB08BD044B586A4FF47A73B0FBF3F091
:100F1000F7E700BF50070020000C004007B5054B65
:100F20009868019002F05EF8019803B05DF804EB58
:100F300002F0B8BBBC06002007B5054B586801900D
:100F400002F050F8019803B05DF804EB02F0AABB80
:100F5000BC06002007B5054B1868019002F042F866
:100F6000019803B05DF804EB02F09CBBBC060020C6
:100F700070B5244C90F96430A56890F9652003F1B0
:100F8000100645F8261002F11006A56845F826104F
:100F900090F86810002914BF10212021002BB5BF44
:100FA00003F00F0003F16040043800F56140B6BF64
:100FB000241880F800132176002A11DB02F160402A
:100FC00000F56140002B80F800130FDA012351096E
:100FD00002F01F0203FA02F20B4B43F8212070BD0E
:100FE0000A4802F00F04002B0155F8DB580903F002
:100FF0001F0101238B40044941F82030002AE5DA23
:10100000EDE700BF00ED00E000E100E014ED00E0DE
:1010100010B590F9654090F9640001F0C9FD2046D3
:10102000BDE8104001F0C4BD90F85830012B00F12C
:10103000040109D0022B09D0002B054818BF00205D
:10104000044A42F8231070470348F9E70348F7E7DA
:10105000550F0008BC060020390F00081D0F0008BE
:101060001A4A03681268C16DB2FBF1F114224360A1
:101070004A439969890701D5013AFAD1144A934242
:1010800009D1144B1A6A42F400121A621A6A22F445
:1010900000121A627047104A934204D002F580622F
:1010A000934209D070470B4B1A6A42F480021A62CD
:1010B0001A6A22F48002ECE7064B1A6A42F4000234
:1010C0001A621A6A22F40002E3E700BFA8020020B5
:1010D000005400400038024000580040F8B5124B60
:1010E000C26D1B68B3FBF2F21423534342680446FB
:1010F0000E46071D9169890701D5013BFAD10025EC
:101100002946A660E560384602F08CFB4FF4804328
:10111000C4E90535C4E908552561E561384601F0A3
:101120006FFDE665F8BD00BFA8020020F0B50E46D1
:10113000044685B03D493046154600F09FFC3C49C9
:101140000746284600F09AFCA4F860600146A4F81F
:101150006250384600F070FC364B2060984212D145
:101160000023019384F85830334B1A6C42F4001278
:101170001A641B6C03F400130193019B42F21F03DA
:10118000A4F8643006E02D4B98422BD003F5806321
:10119000984239D02549304600F02CFC2449284695
:1011A00000F028FC0421304601F072FA04212846A0
:1011B00001F06EFAE36D0BB9214BE3652046FFF7B2
:1011C0004FFFE16DFFF78AFF002384F8693084F850
:1011D000683084F86A3084F86730042384F8663015
:1011E00005B0F0BD012384F8583000230293124B60
:1011F0001A6C42F480021A641B6C03F4800302939D
:10120000029B42F22123BBE7022384F858300023DB
:101210000393094B1A6C42F400021A641B6C03F42A
:1012200000030393039B44F64813A9E7E0E3000897
:10123000A4E3000800540040003802400058004079
:10124000A086010070B504460D4616460021942282
:101250000CF067FB324629462046BDE87040FFF798
:1012600065BF016808B50A6842F400720A6090F828
:101270006620042A05D0B0F96220B0F96010FFF7AB
:1012800055FF002008BD10B50446FFF7EAFFB4F98A
:101290006220B4F960102046BDE81040FFF746BF59
:1012A000F0B51D4690F8663085B0042B0E46044616
:1012B0000A9900F1040701D0082B3FD100293BD047
:1012C000042384F86630002384F8673020460392B4
:1012D000FFF7AAFE01462046FFF74AFE94F8663063
:1012E0000093039AABB2B1B2384601F05DFDF0B99C
:1012F000184B1E68E36DB6FBF3F605FB06631E266E
:101300005E4394F8673013F01E0F01D1013E1DD1EA
:101310002046FFF77DFE1EB194F86730082B08D0F9
:10132000B4F96220B4F960102046FFF7FFFE6FF0B9
:101330000105284605B0F0BD0123C2E7013B012BA2
:10134000C1D809B10823BCE70223BAE7012001F0A4
:10135000E7F8D6E7A8020020F0B51D4690F8663001
:1013600085B0042B0E4604460A9900F1040701D00B
:10137000082B3FD100293BD0042384F8663000239A
:1013800084F8673020460392FFF74EFE0146204660
:10139000FFF7EEFD94F866300093039AABB2B1B25A
:1013A000384601F09BFCF0B9184B1E68E36DB6FBA4
:1013B000F3F605FB06631E265E4394F8673013F0D0
:1013C0001E0F01D1013E1DD12046FFF721FE1EB1A7
:1013D00094F86730082B08D0B4F96220B4F9601093
:1013E0002046FFF7A3FE6FF00105284605B0F0BDCB
:1013F0000123C2E7013B012BC1D809B10823BCE797
:101400000223BAE7012001F08BF8D6E7A8020020FA
:10141000436F07B50146ABB1D0F8843093B190F873
:101420006C20002A14BF0822022280F86220009259
:10143000D0F88020B0F868109BB201F0B5FC03B082
:101440005DF804FB082381F86330F8E7082380F88F
:101450006330704738B5051D04460261284601F027
:10146000CFFB2046FFF7E0FD01462046FFF780FD59
:101470002846BDE8384001F003BD37B504460438BE
:1014800094F8645005B1E568B4F95E20B4F95C10D5
:101490000190FFF74BFE01983DB1012384F86430C1
:1014A00000232A461946FFF7D5FF022384F863304C
:1014B00003B030BD19B9012380F8653070470129A8
:1014C00008BF80F866107047002380F865307047C9
:1014D000002380F86630704701F0D2BC10B5044696
:1014E00050F80429536823F4E0635360FFF790FD3C
:1014F000022384F8633010BD03460122D3E84F0F66
:10150000C3E8412FC0B20029F8D17047D0E85F3F4F
:101510005B18C0E8523F002AF8D198B27047D0E873
:101520005F3F5B1AC0E8523F002AF8D198B270477B
:10153000D0E84F3FC0E8421FD8B2704700B589B02D
:1015400000F07AF8052101A800F023FA114E124D9F
:101550000424039B019A1A60304600F0E1FF019BCE
:10156000049A1B041360304600F0DAFF013CF0D10E
:101570000424039B019A1A60284600F0D1FF019BC6
:10158000049A1B041360284600F0CAFF013CF0D106
:10159000DEE700BFF0490200801A060007B50146E9
:1015A00000220190022000F0B1FB00F045F8019903
:1015B00008460CF0D3FA01990246022000F0A6FB7F
:1015C00003B05DF804EB00F041B8000000B5A3B033
:1015D00002460B4601A884210CF040F8832806D966
:1015E000074B1A681B79CDF883208DF887300028C7
:1015F00002DD01A8FFF7D2FF23B05DF804FB00BFB6
:10160000D6E000080FB407B504A951F8040B019106
:10161000FFF7DCFF03B05DF804EB04B07047EFF3B5
:101620001080C04300F001007047EFF305800038E0
:1016300018BF01207047000008B500F013F8024AF7
:1016400013680133136008BDD0060020044A1368F4
:1016500023B1013B13600BB900F016B8704700BF0F
:10166000D0060020EFF3108372B6054A117831B925
:101670000449DB4303F001030B700123137070472F
:10168000D5060020D4060020034B00221A70034B1D
:101690001B7803B162B67047D5060020D40600203F
:1016A00008B50B48FFF728FF28B1FFF7C5FFBFF3C8
:1016B0004F8F20BFFDE7FFF7B8FF08B1FFF73EFFF0
:1016C000FFF7ADFF0028F9D001200BF053F900BF60
:1016D0001807002070B51B4C8EB034EA200428BFD8
:1016E00004460D4616460021282204A80CF019F9DC
:1016F000CDE901460395FFF79FFF134A13680133B5
:10170000012B136009D101AD0FCD104C0FC40FCDCB
:101710000FC40FCD0FC42B68236001AC0FCC0C4D50
:101720000FC50FCC0FC50FCC0FC523682B60094B1D
:101730001B6813B1A5F130009847FFF787FF002021
:101740000EB070BD0101FF80D8060020E406002025
:101750001C070020DC0600200FB407B50121064855
:10176000CDF804E0FFF7E4FE019A014610B9034802
:10177000FFF7B0FFFFF794FFE00600200001FF80B5
:1017800008B504460121064876461546FFF7D0FE07
:1017900020B9324629462046FFF79CFFFFF780FF1D
:1017A000E0060020F0B52C4E2C4F85B000243546C5
:1017B000214656F8042B38460134FFF723FF0D2C41
:1017C000F6D1AB6C02936B6C01932B6C244C0093A1
:1017D000D5E90E23696B2348FFF714FF21682248DF
:1017E000FFF710FFE16AA26AA36AA06A266BE76BA3
:1017F000000CCDE901670090C3F307231B48D2B268
:10180000FFF700FFA36A1E0603D5616B1848FFF7B8
:10181000F9FEA36A180403D5A16B1648FFF7F2FE80
:10182000EB6C190712D51448FFF7ECFE2B6DDA07A5
:101830000FD51248FFF7E6FEEB6C5B074CBF104874
:10184000104805B0BDE8F040FFF7DCBE0E48FFF7DA
:10185000D9FE0E48EEE700BF48150020DBE0000887
:1018600000ED00E0E9E0000838E1000846E100088A
:1018700095E10008A3E10008B1E10008C0E100081B
:10188000F0E10008FCE10008E0E10008CDE100081B
:1018900013B504461548FFF7B5FE302C17D0402C81
:1018A0001AD0202C1DD11248124CFFF7ABFE124863
:1018B000FFF7A8FEFFF776FF1048FFF7A3FE104AD8
:1018C000104900230093D26B2046FFF759FF0E48C2
:1018D0000E4CFFF797FEEAE70D480E4CFFF792FE1D
:1018E000E5E70D480D4CFFF78DFEE0E708E2000844
:1018F00031E200083E01FF805EE2000869E2000874
:101900004815002088E2000840E200083F01FF80FF
:1019100049E200084001FF8054E200083D01FF80D9
:1019200070B50E4604461546FFF7ACFA013609D0ED
:1019300020460021FFF7CAFA29462046BDE870403C
:10194000FFF7C0BA70BD38B5036804460D465AB1FA
:101950008268136020460121FFF7B8FA2946204625
:10196000BDE83840FFF7AEBAC2681B04F1E737B5EF
:101970000D4604460192FFF785FA013507D0019A1A
:101980000021204603B0BDE83040FFF7DCBF03B0C4
:1019900030BD0022FFF7EBBFF8B5069F04460E46A8
:1019A0001D4662B91A46FFF7BBFF013603D0236814
:1019B00017B1A2681360F8BDE2681B04FAE7FFF7ED
:1019C00061FA0136F7D03A4629462046BDE8F8408C
:1019D000FFF7B9BF08B502F063FC01F0A9F802F007
:1019E00051FC02F05DFC024B01221A6008BD00BFF1
:1019F000500700201FB5431C10D105B05DF804FB53
:101A000083420AD18968039000F0C6FD0398002143
:101A100005B05DF804EB00F03BBE0C31B1F90030CD
:101A20005A1CEDD100230246009302481946FFF7E5
:101A3000A7FE00BF30010180884207B502460AD0E8
:101A4000431C08D0013105D00023054800931946F6
:101A5000FFF796FE0146084603B05DF804FB00BFA1
:101A600030010180B1F900305A1C01D1184670478D
:101A7000834201D1486870470C31F3E7421C13B52B
:101A800004460AD0FFF7EEFF431C06D100230448AA
:101A9000009322461946FFF773FE02B010BD00BF47
:101AA0003001018013B5074C01212046FFF72EFDC0
:101AB000034628B90090014622880348FFF760FEDC
:101AC00002B010BD540700202301048013B5094C57
:101AD00001212046FFF723FD4FF6FF73984206D100
:101AE00000232288044800931946FFF749FE02B0FC
:101AF00010BD00BF54070020240104806FF01C00BB
:101B000070476FF015007047012070470020704744
:101B100070470000F8B5074E15460C468F18BC42BA
:101B200005D014F8011B304600F0C8FFF7E728463F
:101B3000F8BD00BF9C15002038B511F001048DB22E
:101B400005D0084800F0E8FD041E18BF0124EB068C
:101B500005D5044800F0F6FD08B144F01004204615
:101B600038BD00BF9C15002010B504460AF01CFFCC
:101B7000204610BD10B50C462AB1044800F08CFF79
:101B80002070012010BD1046FCE700BF9C1500200E
:101B900038B51D46074B0360074B1B68044633B935
:101BA000064800F01FFE0548294600F001FE2046C9
:101BB00038BD00BF60E60008A80700209C15002083
:101BC000002070470020704708B501200AF0D2FEBF
:101BD000074A084913681844884289BF064B1060B9
:101BE0000C224FF0FF308CBF1A601846704700BFC0
:101BF0009C020020007C012040150020012070473D
:101C000000210BF001BC7047704708B5FFF7FBFFE0
:101C100008BD08B5FFF7F8FF08BD037803F003031C
:101C2000012B09D0037803F00302012A04D043F00A
:101C3000020303700120704700207047037823F0EF
:101C4000030343F001030370704700003F2870B5A1
:101C500004462FDC184D55F820305A1C13D10228A9
:101C600011DCFFF7AFFF034658B92046FFF7A8FF86
:101C7000034630B9114E3378BFF35B8FDB0704D5D1
:101C80000F4B45F82430184670BD3046FFF7C5FFAE
:101C90000028F5D04FF41653032202210848FFF71D
:101CA00077FF3046FFF7CAFF064A07490448FFF7A7
:101CB000A5FFE5E70023E6E79C0100205807002088
:101CC0006407002098010020111B000838B5054664
:101CD000FFF7BCFF0B4B002443F8254030B90BF055
:101CE000A1FE092303604FF0FF3038BD03685B6934
:101CF0009847051E04DA0BF095FE6D420560F2E789
:101D00002046F2E79C010020FFF7E0BF13B5CDE9C4
:101D10000021FFF79BFFDDE9002140B90BF082FEB7
:101D2000092303604FF0FF34204602B010BD036862
:101D3000DB689847041EF7DA0BF074FE6442046017
:101D4000F0E708B5131E07DA0BF06CFE16230360EC
:101D50004FF0FF33184608BDFCD0FFF7D7FF40EA2D
:101D6000E073F7E713B5CDE90021FFF76FFFDDE979
:101D7000002140B90BF056FE092303604FF0FF34F9
:101D8000204602B010BD03689B689847041EF7DA2E
:101D90000BF048FE64420460F0E7002A08B503DB5C
:101DA000BDE80840FFF7DEBF0BF03CFE16230360E2
:101DB0004FF0FF3008BD10B5FFF748FF044628B9C3
:101DC0000BF030FE09230360204610BD0368DB6979
:101DD0009847041EF8DA0BF025FE644204600024E4
:101DE000F2E737B54023CDF80100054668468DF887
:101DF00000300BF077FA044630B12846FFF7DBFFDE
:101E000010B12046FFF7FCFE204603B030BDFFF7BF
:101E1000D2BF13B5CDE90021FFF718FFDDE900219E
:101E200040B90BF0FFFD092303604FF0FF3420465B
:101E300002B010BD03681B699847041EF7DA0BF067
:101E4000F1FD64420460F0E7FFF7E3BF10B5FFF770
:101E5000FDFE30B90BF0E6FD092303604FF0FF30C3
:101E600010BD03689B699847041E04DA0BF0DAFD85
:101E700064420460F2E70020F2E700000A4D08B572
:101E80002B68044698680BF0CFF82B68D8680BF0E5
:101E9000CBF80120FFF7DAFF0220FFF7D7FF0CB1E4
:101EA000FFF74CFBFEE700BF1C06002038B50D46CF
:101EB000FFF7CCFE044630B90BF0B4FD09230360F4
:101EC0004FF0FF3038BD0368DB699847002814BF26
:101ED0004FF400534FF400436B60236820469B6A25
:101EE000984728610020EDE7FFF7E0BF1FB503909A
:101EF0000AF052FD039A034620B9009001460348B8
:101F0000FFF73EFC05B05DF804FB00BF1F01018038
:101F1000FFF7ECBF0AF048BD0AF046BD10B5044615
:101F20000848FEF7BBF9084A4023002152F8040B89
:101F3000A04208BF42F8041C013BF7D10148FEF75C
:101F4000ADF910BD5C0700209C01002010B50F48C2
:101F5000FEF7A4F90E4B032453F824206AB1013490
:101F6000402CF9D10BF05EFD182303600748FEF703
:101F700095F94FF0FF34204610BD4FF0FF32034873
:101F800043F82420FEF78AF9F5E700BF5C0700203C
:101F90009C01002010B50446FFF7D8FF0028A4BF1D
:101FA000014B43F8204010BD9C01002073B506464C
:101FB0000191FFF7EFFF051E13DB0199FFF711FFFA
:101FC000044630B9084B53F82520964204D143F813
:101FD0002500204602B070BD0BF024FD09230360EC
:101FE000F7E70024F5E700BF9C0100200EB42DE9BF
:101FF000F04187B00190FFF7A9FF041E13DB002317
:102000000199039304A8FEF759FA04A8FEF79CFA75
:102010001B4E054668B90BF005FD1323036046F817
:1020200024504FF0FF34204607B0BDE8F04103B024
:10203000704704A8FEF776FA074604A837B1FEF702
:102040007AFA0390039B46F82430ECE7FEF761FA36
:1020500005460028DFD0036804A8D3F80880FEF7FF
:102060004DFA0D9B024603A92846C04705460028A5
:10207000E8D00BF0D7FC6D42056046F82470D0E73D
:102080009C01002070B50E46154905460BF0F8FC82
:10209000044618B9FFF7DAFD204670BD11492846FD
:1020A0000BF0EEFC20B90120FFF7D0FD0124F3E78F
:1020B0000D4928460BF0E4FC20B90220FFF7C6FDCD
:1020C0000224E9E72B78402B02D1D5F80140E3E761
:1020D00026F400412846BDE87040FFF787BF00BFE7
:1020E000BCE60008C3E60008B4E60008704700003C
:1020F000084B094998684FF00053C21802F160423A
:10210000126843F8042B8B42F7D1024B4FF0005278
:102110009A60704700ED00E09401002008B5FFF7D9
:10212000E7FFFFF757FC02F061F9FFF7DFFF08BD9B
:102130002DE9F74F446894F83A100646002955D126
:102140000168496888477168096A814205464DD02F
:10215000206AE168A6682562281A0140384886424C
:102160008C464FF0000E39D094F83BB0D4E90A5AAF
:102170000027A1FB0001BBF1000F46D0CBF12008E6
:1021800001FA08F820FA0BFCABF1200E21FA0EFE42
:102190004CEA080C4CEA0E0C2D1821FA0BFEABF1A0
:1021A00020094AEB010ACBF120080EFA0BF10CFAD8
:1021B00009F941EA09012CFA08F80CFA0BF02B1A7C
:1021C00041EA080100936AEB01030193DDE9002372
:1021D000BB4208BFB2420CD2C4E90A23D4E90C01C5
:1021E00010EB0C0041EB0E01C4E90C0103B0BDE89B
:1021F000F08F009B1CF1010C4EF1000E9A1B019B0D
:1022000063EB0703C4E90A23E8E732463B460AF0DA
:1022100039FA12EB050843EB0A09B94508BFB04586
:1022200084468E4602D2C4E90A89D7E710F1010C30
:1022300041F1000EB8EB060269EB0703E2E700BFCD
:1022400040420F00824206D98A420BD9884294BF8D
:10225000002001207047884206D98A428CBF0020A6
:102260000120704701207047002070472DE9F74F8B
:10227000D0F8048098F83A300746002B40F081806F
:1022800098F83930002B7CD1FFF752FF7E683A680E
:1022900073680192002B66D0D6E90C01D3E90023C4
:1022A000994208BF904205D3019B5B6903B0BDE82A
:1022B000F04F1847141A63EB0105D6E90623AB4229
:1022C00008BFA242D6F8109006D3B2682E4B9A42AD
:1022D00019D1A14528BFA146326A019B9144F268F9
:1022E0001B6909EA02021046019298473B685B6845
:1022F0009847019A0146D8F82000FFF7A3FF00286D
:102300003FD03B68D1E796F83B30EBB1A3F1200C0E
:10231000C3F1200224FA02F204FA03F005FA03F1F1
:1023200004FA0CFC194C41EA0C0111430019164A3D
:102330004FF000044FF0000344EB01010AF0A2F952
:10234000814528BF8146C7E71048A2FB04AB02FBCA
:1023500005BB1AEB00004FF000010B4A4FF00003E1
:102360004BEB0101EAE7D8F81030D8F82000D8F894
:102370000C201844019B1B69104003B0BDE8F04FCE
:10238000184703B0BDE8F08F40420F003F420F00F6
:102390002DE9F04F436893F8382085B00546002AB0
:1023A00063D193F83A30002B5FD103681B689847DC
:1023B0002B68DB69984703682BB92D4800931A46B0
:1023C0001946FFF7DDF91F21012202FA01F4A342A9
:1023D0005FFA81FA02D00139F7D18A464668321F86
:1023E0001C2A05D90023234800931A461946E8E71A
:1023F0001C4614F1FF384FF000031F494FF0070748
:1024000043F1FF399740C1FB0789224640464946C0
:102410000AF038F96B682A6803934FF00008C3E9A3
:1024200000885268894683469047039B01221862C0
:1024300002FA06F66B6800210020013EC3E90A019A
:10244000C3E90C01C3E903672846C3E906B99C60E8
:1024500083F83BA01A8783F83A80FFF769FE284685
:1024600005B0BDE8F04FFFF701BF05B0BDE8F08F44
:102470000E0104800501048040420F0070B504463F
:10248000FFF7DAF82368DB689847636893F83A2027
:102490001AB1BDE87040FFF7D9B8012283F839209E
:1024A00063685B68A3B12046FFF742FE65686E680B
:1024B000D5E90C01D6E90023994208BF904207D321
:1024C000F3686B602B68002BEAD0B0689847E7E7A9
:1024D0006368002283F839202046FFF7C7FED8E75B
:1024E00038B50446FFF754FFFFF7A6F82046FFF77C
:1024F0001FFE6368D3E90C45FFF7A8F8204629467C
:1025000038BD704700487047CCE60008024B1B6896
:102510000BB1024818477047A0020020CCE6000823
:10252000034B596A5A6A521A8242FBD3704700BF62
:10253000000C004030B591FAA1F391FAA1F1B3FA81
:1025400083F384685B000325B1FA81F105FA03F394
:10255000490024EA03038A401343836030BD30B549
:1025600091FAA1F391FAA1F1B3FA83F3C4685B0085
:102570000325B1FA81F105FA03F3490024EA0303C4
:102580008A401343C36030BD012A02D0022A18BF1B
:102590000022FFF7E4BF00002DE9F84300F00F022E
:1025A0003A4B1FFA80F9C0F3031053F82270C1F3BD
:1025B000831801F007060D46FEF7F0FBB8F10F0F88
:1025C0000CBF0322424639460446FFF7B3FF022EF2
:1025D00028D0032E58D0711E4B424B4197FAA7F2D8
:1025E000B2FA82F221685200032000FA02F221EAD4
:1025F000020197FAA7F2B2FA82F252009340013E2A
:102600000B43012E236005D863682A074CBF3B4368
:10261000BB436360C5F3011239462046BDE8F84369
:10262000FFF7B2BF19F0080FC5F3832217D03B0A9A
:1026300093FAA3F1B1FA81F1406A93FAA3F3890006
:102640004FF00F0CB3FA83F30CFA01F19B0020EA70
:10265000010102FA03F30B4363620223BEE797FA18
:10266000A7F1B1FA81F1036A89000F2000FA01F1A4
:1026700023EA010197FAA7F3B3FA83F39B0002FA66
:1026800003F30B432362E8E73346A7E7F8E60008C5
:1026900038B500F00F021F4BC0F3031053F822505F
:1026A0000C46FEF77BFB95FAA5F2B2FA82F35A00CC
:1026B00001680323934095FAA5F2B2FA82F20B4027
:1026C0005200D340013B012B1AD8E31E022B436872
:1026D00009D82B43032C43601AD101222946BDE8B7
:1026E0003840FFF751BF23EA0503012C4360F4D0C3
:1026F000022C0BD029460022BDE83840FFF72FBF3F
:1027000004F0FD03012BE8D0052CF1D10222E5E70E
:10271000052CEEE7F8E600084368094A9B0182B001
:10272000D3581A68120706D5002201921A6801923E
:102730005A680192019A1868C0F3401002B07047BD
:10274000E81500204368034A9B01D3581868C0F37A
:10275000C0107047E815002003464068134A810105
:1027600010B41C688C5002EB80109A684260DA68E2
:1027700082601A69C2605A6902611A6A8261002223
:10278000C284C2618284C2858285B3F91A20013273
:1027900005D108235DF8044B436101F08CBCB3F90B
:1027A000183001330CBF04230C23F3E7E815002095
:1027B0008160FFF7D1BF0000094B98420BD0A3F511
:1027C0004C43984209D003F55043984214BF4FF050
:1027D000FF3002207047002070470120704700BF83
:1027E00000100140F0B50E4685B041490446304620
:1027F0001546FFF743F93F4907462846FFF73EF9DC
:1028000001463846FFF718F9022E20600AD0032D42
:1028100008D037490220FFF731F9B84244D1364891
:10282000FEF79AFF0127354B206898424FF00003CE
:102830003CD10193324B5A6C42F010025A645B6CEB
:1028400003F010030193019BFFF7B6FF2849606076
:102850003046FFF7CFF828462649FFF7CBF8701C23
:1028600003D001213046FFF713FF691C03D001217B
:102870002846FFF70DFF00234FF41652C4E9022348
:10288000C4E904332362268365832046FFF764FF8F
:102890005FB31C4B1C4801221A6021464C2205B034
:1028A000BDE8F0400BF04CB90027BCE7174A904256
:1028B0000FD002F550429042C6D10393104B5A6C90
:1028C00042F020025A645B6C03F020030393039BE5
:1028D000BAE702930A4B1A6C42F400321A641B6C7A
:1028E00003F400330293029BAEE705B0F0BD00BFD6
:1028F00070E4000828E4000898E200080010014095
:1029000000380240A80700209C1500200044004029
:10291000F7B5FFF751FF041E26DB144F57F82400CC
:1029200010B3134DA601AB591A68120606D5DB6821
:10293000190603D50F4B01211B689847AB591A683C
:10294000920608D5DB68980605D50A4B57F824008F
:102950001B6800219847AB591A68110704D55A69BA
:10296000D20744BF5B68019303B0F0BDB0070020FD
:10297000E8150020AC0700200148FFF7C9BF00BFE1
:10298000001401400148FFF7C3BF00BF00440040EE
:102990000148FFF7BDBF00BF00100140002808DB61
:1029A0000123420900F01F0003FA00F0014B43F835
:1029B0002200704700E100E000280DDB43090122FE
:1029C00000F01F0002FA00F02033044A42F823000E
:1029D000BFF34F8FBFF36F8F704700BF00E100E080
:1029E000034B19604168034B43F82120704700BF37
:1029F000AC070020B0070020D0E9000330B4204C21
:102A0000A0421BD004F58064A0421DD0A4F5504420
:102A1000A04216D0002420461A4D9B01EB58CAB1A3
:102A2000DA68A1B942F02002DA60174B00F1100217
:102A30009B6843F8224030BCFFF7B0BF134C252001
:102A4000EAE7134C2620E7E7124C4720E4E742F080
:102A50008002E9E7DA6849B922F02002DA60DB682F
:102A600013F0800F09D130BCFFF7A6BF22F080021F
:102A7000DA60DB6813F0200FF4E730BC704700BF6A
:102A800000100140E815002000ED00E09129000849
:102A9000852900087929000838B54568044620468C
:102AA000FFF73AFE0028FAD0AD01034B5B59586896
:102AB000C0F3080038BD00BFE815002070B54668B7
:102AC00005460C462846FFF73DFE0028FAD0034B8A
:102AD000B601C4F308049B595C6070BDE815002082
:102AE000DFF830D0002103E00B4B5B58435004313A
:102AF0000A480B4B42189A42F6D30A4A02E00023D6
:102B000042F8043B084B9A42F9D301F017FBFDF75A
:102B10008BFB704700800120BCE900089801002071
:102B20008006002080060020F0160020FEE7704797
:102B300008B50B4B1A6842F400721A601A6842F426
:102B400080621A601A6842F480721A60032000F0F2
:102B50001DF80F20FEF7C2F9FFF7E9FF002008BDBE
:102B6000003C024038B50446FEF7BEF9631C1CBFAA
:102B7000054B1B78054618BFE418FEF7B5F9431B53
:102B8000A342FAD338BD00BFA40200200749CA6897
:102B900022F4E0620302120403F4E063120C134314
:102BA00043F0BF6343F40033CB60704700ED00E0B7
:102BB00000280DDB4309012200F01F0002FA00F09B
:102BC0002033044A42F82300BFF34F8FBFF36F8FC7
:102BD000704700BF00E100E090F83530022B03D0D1
:102BE00080234365012070470268052380F8353053
:102BF000136823F001031360002070477047000042
:102C000070B50446002862D090F83D3003F0FF0212
:102C10001BB980F83C20FFF7F1FF22682D4E2E4DA6
:102C2000242384F83D30136823F00103136001F07E
:102C300065F863682268B0FBF5F5B34284BF4FF4D2
:102C400096716943556091BF691C4FF47A75B1FB69
:102C5000F5F10131B342116221D840F6FC715B00FD
:102C6000B0FBF3F30B4208BF0423D361D4E907316F
:102C70000B431360D4E903130B439360D4E905318C
:102C80000B43D360136843F001031360002020233B
:102C9000206484F83D30206384F83E0070BDA16854
:102CA00049B903EB4303B0FBF3F3C3F30B0161B189
:102CB00043F40043D9E719214B43B0FBF3F3C3F3CB
:102CC0000B0111B143F44043CFE70123CDE70120CD
:102CD000E4E700BFA086010040420F0073B5002466
:102CE0000094019490F83D40069D202C02D00220D3
:102CF00002B070BD042D01D0012D18D1294C46F22F
:102D0000A8162468B4FBF6F6192474430194019CB8
:102D1000661E01963CB92023046380F83C4080F88D
:102D20003D300320E4E70468A469A407EFD490F8D9
:102D30003C40012CDBD004682668F6075EBF26689D
:102D400046F001062660266826F4006626602126E5
:102D500080F83D60102680F83E60002606644385BA
:102D6000C562438D41640385036B0093009B4262FF
:102D7000122B01D0009B5BB9042D01D0012D04D191
:102D8000236843F48073236002E0009B122BF7D08A
:102D9000002380F83C30626842F4E06262601846CA
:102DA000A6E700BFA802002073B50024019490F8A4
:102DB0003D40069D202C02D0022002B070BD042DA3
:102DC00001D0012D18D12D4C46F2A8162468B4FB71
:102DD000F6F6192474430194019C661E01963CB9D1
:102DE0002023046380F83C4080F83D300320E4E772
:102DF0000468A469A407EFD490F83C40012CDBD010
:102E0000012480F83C4004682668F6075EBF266807
:102E100046F001062660266826F400662660222613
:102E200080F83D60102680F83E60002606644385E9
:102E3000C562438D41640385036B4262112B01D04F
:102E4000036B93B9042D04D0012D02D015F5803FFA
:102E500008D1236843F480632360236843F48073BC
:102E6000236002E0036B112BF3D0002380F83C3089
:102E7000626842F4E062626018469EE7A8020020A1
:102E800090F83D30202B14D1282380F83D30036882
:102E90001A68D2075EBF1A6842F001021A601A6807
:102EA00042F480621A605A6842F440725A6000200C
:102EB00070470220704770477047000010B590F8C7
:102EC0003D200368293A012A044639D800220263CA
:102ED000282280F83D201A6822F400621A605A689D
:102EE00012F4006254D05A68606B22F400625A6097
:102EF00090F83530012B394B31D00365FFF76CFE6C
:102F000050B12268606B136823F001031360202323
:102F100084F83D30036D984794F83D30282B0ED14E
:102F2000236C5B070BD52E4BE36220220023236327
:102F3000204684F83D2084F83E30FEF7CDFA10BDDF
:102F400090F83D20602A05D05A6812055CBF202207
:102F500080F83D200022226384F83E20BBE7A06B6E
:102F60000365FFF739FE0028D6D023685A6950065A
:102F700004D51A69636A591C61621A702268A06BD1
:102F8000136823F001031360202384F83D30C1E768
:102F900094F83D10602914D1202184F83D1022645A
:102FA0005A69510604D51A69636A591C61621A701C
:102FB0002268136823F0010313602046FEF78EFA9F
:102FC000AAE75A69520604D51A69636A591C6162F4
:102FD0001A702046FEF751FA9EE700BFD937000865
:102FE0000000FFFFF0B503689D6959695A6890F8C1
:102FF0003E40102C8DB0E6B202D0402E40F04A8206
:1030000011F0011F66D0970564D590F83E40402C22
:1030100043D1046D002C3BD1446C04F0FE041C61D0
:10302000974E984C2E400C40002E00F09A81964D01
:103030000D40002D00F06181550540F15E81002CAE
:1030400040F05D8190F83D20058D90F83E10C46AF7
:10305000D2B2C9B2002D40F00581212A40F004818E
:10306000042C00F06781082C00F0648114F5803F87
:1030700000F060815A6822F4E0625A601123036311
:1030800080F83E50202380F83D30FEF7C1F910E172
:10309000446C44F00104E4B2C1E70469B4F5804F24
:1030A00005D190F83D40212C446CF2D1B5E7046D78
:1030B00034B9446CE41104F0060444F0F004AEE7C3
:1030C000046D012CACD1446CE41104F0060444F00E
:1030D000F104A4E76D4C0C401CB1960501D5446C7D
:1030E000D9E76B4C0C40002C9AD0940598D590F8F9
:1030F0003E40C66AD0F830C090F83D70222FE4B24E
:1031000040F0A880076D47B9402C06D101975C6953
:1031100001949C690194019C82E7046D8CB9076954
:10312000B7F5404F0DD102945C6902949C690294FA
:10313000029C1C6844F480741C60046D01340465B6
:103140006EE7448DA4B254B903945C6903949C69FE
:103150000394039C1C6844F400741C6019E0448DC3
:10316000A4B2012C42D116F5803F1BD11C6824F477
:1031700080641C605C6814F400640CD01C6824F447
:1031800080641C60002404945C6904949C69049429
:10319000049C0024D3E705945C6905949C6905941C
:1031A000059CD7E7042E15D0082E13D0BCF1120FC2
:1031B00010D0C46A022C1C6814BF24F4806444F448
:1031C00080641C60002406945C6906949C690694E3
:1031D000069CDEE71C6824F480641C6000240794CD
:1031E0005C6907949C690794079CB3E7448DA4B27B
:1031F000022C1CD1C46A022C1C681DBF24F48064FC
:103200001C601C6844F4806418BF44F400641C60B3
:103210005C68270542BF5C6844F480545C6000240D
:1032200008945C6908949C690894089CB1E71C6840
:1032300044F480641C605C68260542BF5C6844F40A
:1032400080545C60002409945C6909949C69099429
:10325000099C9EE700240A945C690A949C690A947C
:103260000A9CDDE6212A03D0402922D1222A20D13E
:10327000428D92B272B95A6822F480625A6018E0A4
:10328000040010000400010080000100080001009B
:103290000200010090F83E20402A28D1026D82B938
:1032A000C26C012A826C06D1D2B21A61036D02335C
:1032B00003650DB0F0BDC2F307221A61036D01333F
:1032C000F6E7026D012A02D1826CD2B2F5E7026DF7
:1032D000022AEED190F83D20222A04D11A6842F445
:1032E00080721A60E5E790F83D20212AE1D1426A18
:1032F000511C416212781A6193E0002CD9D09405D8
:10330000D7D5C16A90F83D20212AD2D1428D92B200
:10331000002AECD104290DD008290BD011F5803FEB
:1033200008D0596821F4E06159601123036380F8E3
:103330003E20A7E65A6822F4E0625A601A6842F416
:1033400000721A6000232022036380F83D2090F869
:103350003E2080F83E30402A7FF497AEFFF7ABFD69
:10336000A7E78E4D0D40002D3FD051053DD5002CD7
:103370003ED190F83D20222A9BD1428D92B2032A61
:1033800005D91A69436A591C41621A7049E0023A28
:10339000012A1A6822F480621A6004D81A6842F47A
:1033A00000621A6067E7C26A022A02BF1A6842F422
:1033B00000621A605A6822F4E0625A601A69436A2D
:1033C000591C41621A70438D013B9BB243852023F7
:1033D00080F83D300023036390F83E2080F83E30B3
:1033E000402A54D1FFF768FD63E7002C3FF461AF3A
:1033F00097057FF55EAFC26A458D416AADB2032D78
:1034000001F1010412D1042A04D0082A02D012F5D5
:10341000803F03D11A6822F480621A601B694462FB
:103420000B70438D013B9BB2438542E7458DADB2A6
:10343000022DF3D1042A26D0082A24D012F5803F89
:1034400021D01D68013A25F48065012A1D6003D84A
:103450001A6842F480721A601B6944620B70438DD3
:10346000013B9BB2438503681A69436A591C416258
:103470001A70438D0268013B9BB24385536823F465
:1034800040735360A3E71A6842F40072E3E7FDF764
:10349000DDFF0EE7424C0C4074B196050CD59969DE
:1034A0009B6981F004011D0654BF8289028BC1F320
:1034B0008001FDF7FFFFFCE63A4C0C40002C75D074
:1034C000940573D590F83D20596821F4E061596066
:1034D00000210B9159690B91196841F001011960A4
:1034E0000B99196821F48061196059680905D2B2F5
:1034F0000CD590F83D10222903D090F83D102A29D0
:103500002BD1816B0968496889B24185418D89B2A7
:10351000E1B159694F0708D51969436A5C1C4462D7
:103520001970438D013B9BB24385036859694E0670
:1035300008D51969436A5C1C44621970438D013BCC
:103540009BB24385036C43F004030364036C33B103
:103550000DB0BDE8F040FFF7B1BC416BD2E7A2F17E
:10356000280102290AD8104AC2622022036380F887
:103570003D2080F83E30FDF7AFFF9AE6036B222B2B
:1035800002D0222A7FF495AE00232022036380F824
:103590003D2080F83E30FDF79BFF8AE640000100A9
:1035A00002000100100001000000FFFF394E3A4CFC
:1035B0002E400C40002E36D0384D0D403DB3550501
:1035C00025D53CBB90F83D10428D92B2C9B2002A7D
:1035D0003FF46FAE426A541C446212781A61428D05
:1035E000013A92B24285428D92B2002A7FF461AED6
:1035F00029297FF45EAE5A6822F480625A60212342
:103600000363282380F83D30FDF75EFF51E6002C70
:103610003FF44FAE94057FF54CAE428D92B2002A36
:103620003FF447AE63E61E4D0D4035B3510524D53A
:1036300034BB90F83D20418D89B2D2B200293FF4CD
:1036400038AE1969436A5C1C44621970438D013BB2
:103650009BB24385438D9BB2002B7FF42AAE2A2A6E
:103660007FF427AE0268536823F4806353602223FB
:103670000363282380F83D308DE7002C3FF419AE1A
:1036800092057FF516AE428D92B2002A3FF411AE3C
:1036900077E600BF04001000040001008000010074
:1036A00040000100F8B50368494A5E695D6816424A
:1036B000044608D0E80506D5226C42F001022264D7
:1036C0006FF480725A6116F4813F08D0E90506D57F
:1036D000226C42F0020222646FF400725A6116F406
:1036E000823F36D0EA0534D594F83E70618D94F867
:1036F0003D20206B202F89B2D2B258D1002956D15B
:1037000002F0F701212903D0282A50D121284ED1D7
:1037100094F83D20E16A0429D2B201D008292CD1C5
:10372000282A2AD12B4AE2625A6822F4E0625A60BF
:103730006FF480625A611A6822F480621A60002372
:1037400020222363204684F83D2084F83E30FDF794
:10375000C3FE16F4843F09D0EB0507D5236C43F074
:103760000803236423686FF400625A61236C73B307
:103770002046BDE8F840FFF7A1BB212A23D1154917
:10378000E1622263202284F83D20002284F83E205A
:103790005A6822F4E0625A606FF480625A611A68D3
:1037A00022F480621A602046FDF78EFED1E7226C7B
:1037B00042F00402226494F83E20102A02BF1A68E4
:1037C00042F400721A606FF480625A61C1E7F8BD7A
:1037D000000101000000FFFF806B08B50368416B2A
:1037E0001A6822F480621A60002242850A65816BA1
:1037F0000A6590F83D1060294FF0200180F83D10D7
:1038000080F83E2007D102641A6822F001021A6093
:10381000FDF764FE08BD1A6822F001021A60FDF788
:103820002CFEF7E710B590F83D30202BDCB216D116
:10383000242380F83D3003681A6822F001021A60E0
:103840005A6A22F010025A625A6A114359621A687F
:1038500042F001021A6080F83D40002010BD0220B5
:10386000FCE700002DE9F341044618B9012002B03D
:10387000BDE8F0810368DD0710D4236898075BD4A6
:1038800023681A0700F19D8023685B0700F1BB8065
:10389000A269002A40F01C810020E8E7A54B9A6845
:1038A00002F00C02042A07D09A6802F00C02082ADF
:1038B0000AD15A68510207D59E4B1B689A03DCD582
:1038C0006368002BD9D1D1E76268B2F5803F11D18E
:1038D0001A6842F480321A60FDF706FB954E0546E1
:1038E00033689B03C9D4FDF7FFFA401B6428F7D95E
:1038F0000320BCE78F4DB2F5A02F2B6807D143F40E
:1039000080232B602B6843F480332B60E4E723F49F
:1039100080332B602B6823F480232B60002ADBD1BB
:10392000FDF7E2FA06462B689F03A6D5FDF7DCFA01
:10393000801B6428F7D9DBE77E4B9A6812F00C0FE6
:1039400007D09A6802F00C02082A11D15B685E0267
:103950000ED4784B1A68950702D5E268012A85D102
:103960001A68216922F0F80242EAC1021A6087E768
:10397000E268714BB2B101221A60FDF7B5FA6D4DE4
:1039800006462B68980707D52B68226923F0F803B1
:1039900043EAC2032B6073E7FDF7A6FA801B0228F7
:1039A000EFD9A5E71A60FDF79FFA624E0546336826
:1039B00099077FF565AFFDF797FA401B0228F6D906
:1039C00096E762695D4B7AB101221A60FDF78CFAC5
:1039D000584E0546736F9F073FF556AFFDF784FAC3
:1039E000401B0228F6D983E71A60FDF77DFA514E95
:1039F0000546736F98077FF547AFFDF775FA401BD3
:103A00000228F6D974E74B4B1A6C12F0805228D179
:103A100001921A6C42F080521A641B6C03F08053BE
:103A20000193019B0127464D2B68D9051BD5A3683F
:103A3000404D012B27D12B6F43F001032B67FDF77E
:103A400053FA3C4E054641F28838336F9B0739D50F
:103A5000002F3FF41DAF374A136C23F080531364DB
:103A600016E70027DFE72B6843F480732B60FDF730
:103A70003BFA06462B68DA05D9D4FDF735FA801BE8
:103A80000228F7D934E7052B04D12B6F43F0040348
:103A90002B67D0E72A6F22F001022A672A6F22F0F3
:103AA00004022A67002BCAD1FDF71EFA41F28838BA
:103AB00006462B6F9807CBD5FDF716FA801B4045BD
:103AC000F7D915E7FDF710FA401B4045BDD90FE7C0
:103AD000184DAB6803F00C03082B3FF4C7AE194E2A
:103AE0000023022A336035D1FDF7FEF907462B6823
:103AF000990129D4D4E907321343626A43EA821355
:103B0000E26A43EA0263A26A5208013A43EA0243C4
:103B10006B6001233360FDF7E7F9064D04462B681F
:103B20009A013FF5B9AEFDF7DFF9001B0228F6D97F
:103B3000DEE600BF0038024000004742800E4742E8
:103B40000070004060004742FDF7CEF9C01B02281C
:103B5000CDD9CDE6FDF7C8F904462B689B017FF56A
:103B60009BAEFDF7C1F9001B0228F6D9C0E600BFE5
:103B7000134908B58B6803F00C03042B1CD0082BE9
:103B80001CD14A684B68496813F4800314BF0D4880
:103B90000D48C1F3881118BF002302F03F02A1FBBA
:103BA000000108F06FFD064B5B68C3F3014301336E
:103BB0005B00B0FBF3F008BD0248FCE70248FAE7FF
:103BC0000038024000127A000024F4002DE9F04190
:103BD0000D46044610B90120BDE8F081434B1A6838
:103BE00002F00F028A4227D3226897072CD4D0070D
:103BF00040D43E4B1A6802F00F02AA4265D82268F0
:103C000051076BD4130707D5394A2169936823F408
:103C1000604343EAC1039360FFF7AAFF344B354A80
:103C20009B68C3F30313D35CD840334B18600F2059
:103C3000FDF754F90020CFE7CAB21A701B6803F0F1
:103C40000F038B42C7D1CFE7294B12F0040F1EBFE1
:103C5000996841F4E0519960160742BF996841F4B0
:103C6000604199602249A0688B6823F0F003034308
:103C70008B60BCE762681E4B012A1CD11B6813F4E1
:103C8000003FA8D01A4EB36823F003031343B36078
:103C9000FDF72AF941F288380746B368626803F0F5
:103CA0000C03B3EB820FA4D0FDF71EF9C01B4045F7
:103CB000F3D9032090E7911E01291B6802D813F065
:103CC000007FDEE713F0020FDBE7EAB21A701B6831
:103CD00003F00F03AB427FF47EAF90E70449E06846
:103CE0008B6823F4E05303438B608BE7003C024076
:103CF0000038024038E70008A8020020044B054ABB
:103D00009B68C3F38223D35C034A1068D840704792
:103D10000038024048E70008A8020020044B054A8A
:103D20009B68C3F34233D35C034A1068D8407047A2
:103D30000038024048E70008A80200200F23036073
:103D40000B4B9A6802F0030242609A6802F0F0029C
:103D500082609A6802F4E052C2609B68DB0803F458
:103D6000E0530361034B1B6803F00F030B607047C4
:103D700000380240003C024070470000224A0368BD
:103D800090420ED0B0F1804F0BD0A2F57C42904211
:103D900007D002F58062904203D002F58062904223
:103DA00015D14A6823F070031343174A904219D083
:103DB000B0F1804F16D0A2F57C42904212D002F5AD
:103DC000806290420ED002F5806290420AD00F4A83
:103DD000904207D002F58062904203D002F58062E3
:103DE000904203D1CA6823F44073134303608B6885
:103DF000C3620B688362044B984204BF0B69036380
:103E000001234361704700BF0000014000400140B2
:103E100010B50446A0B190F8393003F0FF021BB989
:103E200080F83820FFF7A8FF0223206884F8393093
:103E3000211DFFF7A3FF012384F83930002010BDB6
:103E40000120FCE7036A10B501248C4023EA040337
:103E50000362036A02FA01F10B43036210BD000022
:103E600010B5044601220068FFF7ECFF2368064AFC
:103E7000934202BF5A6C42F400425A641A6842F0FC
:103E800001021A60002010BD000001402DE9F84336
:103E90000368C1681A69044622F440520A431A6151
:103EA0002569A268D968C0692A43656921F4164169
:103EB0002A4321F00C0102430A43DA605A69A169DE
:103EC00022F440720A43B0F5004F5A61774A79D123
:103ED000934203D002F58062934243D1FFF71EFF65
:103EE000636819254FF0640868435B00B0FBF3F387
:103EF000B3FBF8F31F01FFF711FF636868435B0032
:103F0000B0FBF3F6FFF70AFF636868435B00B0FBA2
:103F1000F3F3B3FBF8F308FB1363DB003233B3FBBB
:103F2000F8F35B0003F4F876FFF7F8FE6268684385
:103F30005200B0FBF2F9FFF7F1FE636822686843B4
:103F40005B00B0FBF3F3B3FBF8F308FB1393DB0068
:103F50003233B3FBF8F303F007033B44334493607D
:103F6000BDE8F883FFF7CAFE636819254FF06408BF
:103F700068435B00B0FBF3F3B3FBF8F31F01FFF7FB
:103F8000BDFE636868435B00B0FBF3F6FFF7B6FE67
:103F9000636868435B00B0FBF3F3B3FBF8F308FB23
:103FA0001363DB003233B3FBF8F35B0003F4F87602
:103FB000FFF7A4FE626868435200B0FBF2F9FFF716
:103FC0009DFEBAE7934202D0394A93423FD1FFF7B0
:103FD000A5FE636819254FF0640868439B00B0FB99
:103FE000F3F3B3FBF8F31E01FFF798FE6368684331
:103FF0009B00B0FBF3F7FFF791FE636868439B00FB
:10400000B0FBF3F3B3FBF8F308FB13731B0132337C
:10401000B3FBF8F303F0F007FFF780FE6268684334
:104020009200B0FBF2F9FFF779FE636822686843FB
:104030009B00B0FBF3F3B3FBF8F308FB13931B01F6
:104040003233B3FBF8F303F00F033B4386E7FFF78C
:1040500055FE636819254FF0640868439B00B0FB68
:10406000F3F3B3FBF8F31E01FFF748FE6368684300
:104070009B00B0FBF3F7FFF741FE636868439B00CA
:10408000B0FBF3F3B3FBF8F308FB13731B013233FC
:10409000B3FBF8F303F0F007FFF730FE6268684304
:1040A0009200B0FBF2F9FFF729FEBEE700100140D5
:1040B00000140140704710B5044640B390F8393001
:1040C00003F0FF021BB980F83820FFF7F3FF2268E6
:1040D000242384F83930D36823F40053D360204676
:1040E000FFF7D4FE23681A6922F490421A615A69D4
:1040F00022F02A025A61DA6842F40052DA600020A3
:104100002023E06384F8393084F83A3010BD012070
:10411000FCE77FB502210F23CDE901314FF4805236
:10412000002301A8CDE903320593FFF74FFDB0FA54
:1041300080F0400907B05DF804FB00000F49D1F89A
:10414000883043F47003C1F888300D4B1A680020A2
:1041500042F001021A6098601A6822F0847222F418
:1041600080321A60074A5A601A6822F480221A6064
:10417000D8604FF000638B60704700BF00ED00E037
:10418000003802401030002410B58EB01D4B0024C2
:1041900000941A6C42F080521A641B6C1A4A03F0A5
:1041A00080530093009B0194136823F4404343F42D
:1041B00000431360136803F440430193A042019B42
:1041C0004FF0010302930CBF4FF480334FF4A02350
:1041D000039302224FF48003CDE9082308214FF412
:1041E000A8730420CDE90A130723CDE90C0302A824
:1041F000FFF738FB18B9FFF78CFF0EB010BD204653
:10420000FBE700BF003802400070004010B58EB0E0
:1042100000241A4B00941A6C42F080521A641B6CF2
:10422000174A03F080530093009B0194136823F412
:10423000404343F4004313601368039403F4404382
:104240000193019B032302930123059310230693FB
:104250000A934FF4A8710423CDE90B13022207231C
:1042600002A8CDE908240D93FFF7FCFA18B9FFF76F
:1042700050FF0EB010BD2046FBE700BF00380240E3
:104280000070004008B50120FFF77EFF28B9FFF756
:10429000BDFF10B90148FDF75FFA08BDCDE2000887
:1042A000174A1849936803F00C03042B10B50DD07E
:1042B000082B0DD0144B0B60114B144A9B68C3F3B1
:1042C0000313D25C0B68D3400B6010BD104BF2E7B8
:1042D0005468506852686302C2F388124CBF0C4B9A
:1042E000094B00F03F00B3FBF0F35343044A52681C
:1042F000C2F3014201325200B3FBF2F3DBE700BF2D
:1043000000380240A80200200024F40038E700082A
:1043100000127A00074B084A13601A69910707D503
:10432000DA68920704D56FF002021A61FEF7EEB860
:10433000704700BF000C0040AC16002000487047DA
:1043400050E7000830B589B001A903A8FFF7F6FCD3
:10435000FFF7D4FC002302931E4B01901A6C1E4CF5
:1043600042F008021A641A6C02F008020292029AE1
:104370001A6A42F008021A621A6A22F008021A62E5
:10438000069AA3F50B3323604FF0FF33E360134B22
:10439000F2B9B0FBF3F00138002560600E482561EA
:1043A000A5606561FFF734FD0D4B0E4A9B68C3F8AD
:1043B00008210D4B4FF480225A6007482946FFF729
:1043C0004FFD2268D36823F00203D36009B030BDEB
:1043D0004000DEE700380240AC16002040420F00EB
:1043E00000ED00E01543000800E100E00448026829
:1043F000D36823F00203D3600021FFF731BD00BF73
:10440000AC160020014B586A704700BF000C0040FA
:10441000054B1B686FF0020258631A61DA6842F0BC
:104420000202DA60704700BFAC160020064B1B6822
:104430006FF002021A615A6942F002025A61DA68A8
:1044400042F00202DA607047AC160020034B1A6893
:10445000D36823F00203D360704700BFAC1600207E
:10446000024B1B686FF002021A617047AC16002005
:1044700000B585B00390029111461A460B46ADF87F
:1044800006301346ADF80430039BBDF90420BDF996
:1044900006101846FCF780F90E4A039B1A60039B2E
:1044A000BDF80620A3F8CC20039BBDF80420A3F898
:1044B000CE20039B029AC3F8D420039B064AC3F87C
:1044C000D020039B102283F8D820039B184605B008
:1044D0005DF804FB60E70008A086010000B583B02A
:1044E0000190019B30331846FCF7BBFE019B303333
:1044F0001846FCF7C8FE019B03F13000019BB3F99D
:10450000CC10019BB3F9CE301A46FCF79BFE019B01
:10451000D3F8D0301946019800F011F800BF03B06D
:104520005DF804FB82B001900B468DF80330019BCF
:104530009DF8032083F8D82000BF02B0704700B573
:1045400083B001900091019B009AC3F8D020019B99
:1045500000991846FCF712F800BF03B05DF804FBA1
:1045600010B586B001900B468DF8033000230593FB
:10457000019B042B77D803AA04AB1946019800F0DD
:104580002DF9049A3A4913465B0013449B000B44EF
:1045900008331B78002B53D1DC20FDF7A7FC034622
:1045A0001C46039A324913465B0013449B000B449C
:1045B000B3F90010049A2E4813465B0013449B0085
:1045C0000344B3F900300A4601992046FFF750FF33
:1045D000049A274913465B0013449B000B440433A1
:1045E0001C600499039A22480B465B000B449B0015
:1045F0000344043319681E4813465B0013449B00B0
:10460000034404331960039A194913465B001344A9
:104610009B000B44083305221A70049A1449134670
:104620005B0013449B000B44083305221A70049A64
:1046300013465B0013449B000D4A1344059312E09C
:10464000049A0B4913465B0013449B000B44083348
:104650001B78052B07D1049A13465B0013449B007B
:10466000034A13440593059B184606B010BD00BFCE
:10467000F802002000B589B00590039202930B4622
:10468000ADF8123000238DF81F30059B0693069B72
:10469000002B2FD0069B5B681846BDF812305900DE
:1046A000029A9DF82830002B14BF01230023DBB2AF
:1046B00000931346039AFBF7B2FF0346002B14BF87
:1046C00001230023DBB2002B08D0069B5B68184651
:1046D000FFF704FF04238DF81F3002E000238DF85C
:1046E0001F30069B5B689DF81F2011461846FFF798
:1046F00019FF02E010238DF81F309DF81F30184677
:1047000009B05DF804FB00B589B0059003920293EF
:104710000B46ADF8123000238DF81F30059B069331
:10472000069B002B2FD0069B5B681846BDF8123005
:104730005900029A9DF82830002B14BF0123002352
:10474000DBB200931346039AFBF748FF0346002BA6
:1047500014BF01230023DBB2002B08D0069B5B684B
:104760001846FFF7BBFE04238DF81F3002E000233C
:104770008DF81F30069B5B689DF81F201146184678
:10478000FFF7D0FE02E010238DF81F309DF81F3098
:10479000184609B05DF804FB00B583B00190064AE5
:1047A000019B1A60019B1846FBF7D4FF019B18463A
:1047B00003B05DF804FB00BF60E7000800B583B0FC
:1047C00001900198FFF7E8FFDC210198FDF7A2FBBB
:1047D000019B184603B05DF804FB000086B003900F
:1047E00002910192039B013B032B0BD801A252F8CB
:1047F00023F000BF0F4800081D48000827480008A4
:10480000314800080F2305930E23049317E04FF05F
:10481000FF3305934FF0FF33049310E00623059315
:10482000032304930BE0072305930523049306E079
:104830004FF0FF3305934FF0FF33049300BF029B0B
:10484000059A1A60019B049A1A6000BF06B070476F
:1048500084B00190009100238DF80F309DF90F3046
:10486000184604B07047000000B585B00190009173
:1048700000238DF80B30019B002B02D14FF0FF334A
:1048800058E0009B002B02D14FF0FF3352E02B4B3E
:10489000D3E900014FF000024FF0404307F08AFED9
:1048A0000346002B06D0009BD3E900232349C1E92E
:1048B000002305E0214BD3E900230099C1E900233F
:1048C0001E4BD3E90023019B5B681B681C4A1360E5
:1048D000019B5B685B681B4A1360019B5B689B687C
:1048E000194A1360019B5B68DB68184A1360184B18
:1048F00000221A6001F082FA00230393002303933D
:1049000007E0144A039B144942F82310039B013328
:104910000393039B012BF4D900F0E4FE03468DF8CA
:104920000B309DF90B30002B02D10C4B01221A7079
:104930009DF90B30184605B05DF804FBB00200206D
:10494000A8080020AC080020B0080020B40800200F
:10495000B8080020BC070020595E0008A508002008
:1049600000B587B0019000238DF817300023049321
:1049700000238DF80F302E4B1B78DBB2002B0CBFC1
:1049800001230023DBB28DF80E302A4B02221A706D
:10499000019B002B0BD1264B1B78DBB2002B06D1E1
:1049A000254B1B78DBB2002B01D1012300E0002353
:1049B0008DF80F3017E00A20FEF7D4F8049B03F5BA
:1049C0001C5310330493019BB3F1FF3F05D0049AAD
:1049D000019B9A4201D9012300E000238DF80F309A
:1049E000002000F0C5FE124B1B78DBB2002B08D173
:1049F000114B1B78DBB2002B03D19DF80F30002B3D
:104A0000D9D00C4B03221A709DF80F30002B02D026
:104A10009C238DF817309DF80E30002B01D001F04B
:104A200015FB9DF91730184607B05DF804FB00BF71
:104A3000A3080020A5080020A408002000B587B026
:104A400003468DED000BADF80E3000238DF81730C6
:104A500001238DF816304FF000024FF00003DDE91E
:104A6000000107F0B1FD0346002B02D04FF0FF33E9
:104A700052E0BDF80E30FF2B02D94FF0FF334BE070
:104A8000274B1B78DBB2032B04D0254B1B78DBB202
:104A9000012B02D1224B04221A70BDF80E30012BDB
:104AA0001BD8BDF80E301F4A52F82330002B14D00B
:104AB00001F040FE03468DF815309DF81530022BAD
:104AC0000BD1BDF80E30174A52F82330BDF80E2036
:104AD0001046984703468DF81630BDF80E30ADF8F5
:104AE0001230BDF80E3018469DED000B00F05CFD55
:104AF0009DF81630002B08D0BDF81230184601F092
:104B0000F3FD03468DF8173004E0BDF81230184667
:104B100001F03BFE9DF91730184607B05DF804FB25
:104B2000A5080020BC07002000B583B000238DF845
:104B30000730002000F01CFE03468DF807309DF979
:104B40000730184603B05DF804FB000000B583B0E1
:104B500000238DF807300C4B06221A7000F0A4FEDB
:104B600003468DF8073008220021084808F0D9FED6
:104B700001F0F6F9044B00221A709DF9073018462F
:104B800003B05DF804FB00BFA5080020BC070020AF
:104B9000024B1B78DBB21846704700BFA408002008
:104BA000024B1B78DBB21846704700BFBC080020E0
:104BB00000B585B08DED000B0098019B23F00041FE
:104BC0004FF000022E4B07F0FFFC0346002B48D0AD
:104BD0004FF000022B4BDDE9000107F009FD034611
:104BE000002B13D04FF00002264BDDE9000107F047
:104BF000C3F802460B4643EC172BB0EE470AF0EE23
:104C0000670A06F0A9FE8DED020B2EE04FF00002C0
:104C10001D4BDDE9000107F0F5FC0346002B0CD02D
:104C20004FF000024FF00003DDE9000107F05AFAEF
:104C300002460B46CDE9022317E04FF00002114B6C
:104C4000DDE9000107F096F802460B4643EC172B0E
:104C5000B0EE470AF0EE670A06F0FEFD8DED020B9E
:104C600003E0DDE90023CDE90223DDE9022343EC83
:104C7000172BB0EE470AF0EE670A05B05DF804FBAB
:104C8000000030430000E03F0000E0BF00B591B0FD
:104C90000390039B00221A72039B01225A60EFF3D8
:104CA00010830893089B0F9362B600BF03994FF0DF
:104CB0000002284BC1E91823039B03F16002039B08
:104CC0009A61039B9B690E93039B00225A63039B8B
:104CD0000E9A9A63039B00221A6403994FF0000214
:104CE0004FF08043C1E91623039BD3E916230399B0
:104CF000C1E91423039BD3E91423CDE90C239DEDD3
:104D00000C0BFFF755FF8DED0C0B4FF00002124B13
:104D1000DDE90C0107F058FC0346002B1ED04FF0D4
:104D200000024FF00003DDE90C0107F061FC0346CF
:104D3000002B09D0DDE90C0107F084FC0346DAB250
:104D4000039B83F844200DE0039B002283F844205A
:104D500008E000BF0000F0BF00007040039BFF228E
:104D600083F84420039B532283F84520039B0022B1
:104D7000DA64039B03F14C02039B9A64039B9B6CD4
:104D80000B93039B93F844308DF82B309DF82B3018
:104D900000211846FFF7E4FB02460B9B1A60039BB9
:104DA00003F14002039BDA63039BDB6B0993099BCE
:104DB0009B680B93099B5B798DF82B302D238DF825
:104DC000183000238DF819300B9B18689DF82B3094
:104DD00099B206AA00230193002300930223FFF750
:104DE00092FC039BDB6B099300238DF81730099B22
:104DF0009B680B93099B5B798DF82B300B9B186894
:104E00009DF82B3099B20DF1170200230193012375
:104E100000930123FFF777FC03468DF817309DF8C8
:104E20001730002B0DD10B9B18689DF82B3099B2D1
:104E30000DF1170201230193002300930123FFF7D3
:104E400019FC039BDB6B099331238DF81730099B09
:104E50009B680B93099B5B798DF82B3000238DF8B1
:104E600016300B9B18689DF82B3099B20DF1170284
:104E700000230193012300930123FFF744FC034621
:104E80008DF817309DF81730002B0DD10B9B18684B
:104E90009DF82B3099B20DF11602012301930023E6
:104EA00000930123FFF7E6FB039BDB6B0993099B50
:104EB0009B680B93099B5B798DF82B3031238DF820
:104EC00018309DF816305BB223F003035BB243F059
:104ED00001035BB2DBB28DF819300B9B18689DF8AB
:104EE0002B3099B206AA00230193002300930223DA
:104EF000FFF709FC039BDB6B09932C238DF817301C
:104F0000099B9B680B93099B5B798DF82B300023E1
:104F10008DF816300B9B18689DF82B3099B20DF167
:104F2000170200230193012300930123FFF7EBFBFA
:104F300003468DF817309DF81730002B0DD10B9BD1
:104F400018689DF82B3099B20DF1160201230193D8
:104F5000002300930123FFF78DFB039BDB6B099379
:104F6000099B9B680B93099B5B798DF82B302C2355
:104F70008DF818309DF816305BB223F00F035BB24A
:104F800043F007035BB2DBB28DF819300B9B186856
:104F90009DF82B3099B206AA0023019300230093B9
:104FA0000223FFF7B0FB039BDB6B099331238DF8E2
:104FB0001730099B9B680B93099B5B798DF82B300D
:104FC00000238DF816300B9B18689DF82B3099B292
:104FD0000DF1170200230193012300930123FFF732
:104FE00092FB03468DF817309DF81730002B0DD13A
:104FF0000B9B18689DF82B3099B20DF11602012316
:105000000193002300930123FFF734FB039BDB6B29
:105010000993099B9B680B93099B5B798DF82B3057
:1050200031238DF818309DF816305BB243F0080339
:105030005BB2DBB28DF819300B9B18689DF82B30F2
:1050400099B206AA00230193002300930223FFF7DD
:105050005AFB039BDB6B09932D238DF81730099BBB
:105060009B680B93099B5B798DF82B3000238DF89F
:1050700016300B9B18689DF82B3099B20DF1170272
:1050800000230193012300930123FFF73CFB034618
:105090008DF817309DF81730002B0DD10B9B186839
:1050A0009DF82B3099B20DF11602012301930023D4
:1050B00000930123FFF7DEFA039BDB6B0993099B47
:1050C0009B680B93099B5B798DF82B302D238DF812
:1050D00018309DF816305BB243F008035BB2DBB2C8
:1050E0008DF819300B9B18689DF82B3099B206AAE1
:1050F00000230193002300930223FFF704FB039B8B
:10510000002283F83020039B03F13002039BDA6115
:10511000039B03F12802039B1A620F9B0793079BD3
:1051200083F3108800BF039B01221A7200BF11B0E5
:105130005DF804FB10B588B0574BD3E904014FF07C
:105140000002564B07F036FA0346002B05D15249B0
:105150004FF00002514BC1E904234F4BDB69DB6880
:105160000693069B9B680593069B5B798DF813302D
:105170000023079307E003AA079B134400221A7039
:10518000079B01330793079B052BF4DD32238DF832
:105190000B30059B18689DF8133099B20DF10B0286
:1051A00000230193012300930123FFF7ACFA034688
:1051B0008DF80B309DF80B30002B0CD1059B186837
:1051C0009DF8133099B203AA0123019300230093A1
:1051D0000623FFF74FFA9DF80D301BB21B021AB2DF
:1051E0009DF80C301BB213431BB207EE903AF8EE59
:1051F000E77A9FED2B7A67EE877A9FED2A7A67EE42
:10520000877A294BC3ED007A9DF80F301BB21B0241
:105210001AB29DF80E301BB213431BB207EE903A40
:10522000F8EEE77A9FED1E7A67EE877A9FED1D7A9A
:1052300067EE877A1C4BC3ED017A9DF811301BB2E3
:105240001B021AB29DF810301BB213431BB207EEBB
:10525000903AF8EEE77A9FED127A67EE877A9FED43
:10526000117A67EE877A104BC3ED027A0F4B9A6A78
:1052700001329A629B6A184606F0BAFE0B4BD3E9DC
:105280000C230A4C06F02EFF02460B46C4E9082305
:1052900000BF08B010BD00BFD00700200000F0BF65
:1052A0000000803BC3F51C41C407002038080020E3
:1052B00008B527494FF00002264BC1E90E232449C7
:1052C00021A3D3E90023C1E90C23214B224A9A6090
:1052D0001F4B224ADA601E4B214A1A611C4B214A9D
:1052E0005A611B4B204A5A601F4B204A1A601F4BC1
:1052F0001F4A1A601D4B1E4A5A60154A144B5B68C0
:1053000018329A60124A124B5B6808325A60104A8F
:105310000F4B5B682032DA60164B012283F8302095
:10532000144B00225A60134B00221A7011494FF09F
:105330000002084BC1E904230E48FFF7A7FC00BF99
:1053400008BD00BFAFF300809A9999999999C93F18
:10535000380800200000F0BFBFD71905E036DBCCCD
:105360007EA9E666FC52D6728008002094080020D0
:1053700074E70008D00700200C4B1B78002B02D1EB
:105380000A4B01221A70094B93F83030002B0AD1D6
:10539000064B012283F83020044B5B6B012B02D1BA
:1053A000024B02225A6300BF704700BFD0070020A3
:1053B00000B583B04FF000024FF00003CDE90023A9
:1053C000154B1B785A1CD1B2134A1170002B09D00F
:1053D000124B01221A60104B1B78013BDAB20E4BC4
:1053E0001A7016E062B600BF0D4B1B68D3E90823A4
:1053F000CDE90023FFF79EFE9DED000B0020FFF797
:105400001DFB72B600BF044B1B78013BDAB2024BA6
:105410001A7003B05DF804FBA00800209C0800206F
:1054200070E7000800B585B0514B0393514B0293D0
:1054300000238DF80730504B00221A704F4B00228A
:105440001A7001DFFDF774FB05F090FFFEF728FFEF
:105450004B4B1B6800221A6000210020FFF7F8F96F
:1054600003468DF807309DF90730002B02D09DF9D7
:10547000073078E0FFF71CFF414B1B685A68404B30
:105480001B68383319461046FFF7EEF903468DF8CE
:1054900007309DF90730002B0DD14FF0FF30FFF79B
:1054A0005FFAFFF775FB0346002B04D0344B1B68F3
:1054B000012283F840209DED030A05F0CFFFFFF79E
:1054C0006FFB0346002B0CD1FFF762FB0346002B5A
:1054D00007D12B4B1B6893F84030002B01D10123DF
:1054E00000E00023DAB2254B1A7062B600BF30E04C
:1054F000FFF71AFB03468DF80730FFF751FB034611
:10550000002B0AD1FFF744FB0346002B05D11C4BAF
:105510001B6893F84030002B01D0012300E00023EA
:10552000DAB2154B1A70144B1B78DBB2002B0CBF90
:1055300001230023DBB21A46104B1A700E4B1B7866
:10554000DBB2002B05D00F4B1B680E4A23F0010382
:1055500013600A4B1B78DBB2002BC9D1FFF70CFF9D
:10556000FFF7F4FA0023184605B05DF804FB00BF0E
:10557000CDCC4C3E0000A842A1080020A20800208B
:1055800070E7000810E000E084B0039002910192FF
:10559000039B029A1A60039B0433019A1A6000BFAE
:1055A00004B070470000000070B58AB08DED020BAA
:1055B0000346ADF80630BDF80630002B77D14FF02A
:1055C0000002414BDDE9020106F08CFD02460B466C
:1055D000CDE906239FED381B9DED060B06F004F97F
:1055E00053EC102B1046194607F02CF80346059390
:1055F0000023099332A3D3E90023DDE9060107F074
:1056000001F80346002B0ED02DA3D3E90023DDE9DA
:10561000060106F091FE02460B461046194607F0B9
:1056200011F803460993099A05992848FFF7ACFF3A
:10563000274BD3E900014FF00002264B06F0BAFFDA
:105640000346002B2ED1224BD3E900014FF000027C
:105650004FF0404306F0AEFF0346002B22D11C4B17
:10566000D3E90001DDE9022306F084FB02460B4684
:1056700014461D464FF00002174BDDE9020106F00B
:1056800031FD02460B4601210E462046294606F012
:105690009BFF0346002B01D100231E46F3B21A469E
:1056A0000E4B1A700E49DDE90223C1E9002300BF49
:1056B0000AB070BDAFF30080000000000000F041B0
:1056C0000000E0FFFFFFEF4100408F40D0080020C6
:1056D000B00200200000F0BF0000B03CBC08002079
:1056E000D808002000B585B0002302930023019361
:1056F00000238DF80F301C494FF000024FF00003DB
:10570000C1E9002319494FF000024FF00003C1E93D
:10571000002301AA02AB1146184605F0C7FB029B05
:10572000019A1146184603F0D5FD03468DF80F3057
:105730009DF90F30002B02D09DF90F3010E001AA27
:1057400002AB1146184605F0C3FB029B019A1146B5
:10575000184600F0EBFE03468DF80F309DF90F3030
:10576000184605B05DF804FBC0080020C8080020FA
:1057700000B585B003468DF8073000238DF80F3053
:1057800000238DF80E300020FDF7ECF900238DF892
:105790000D3003F02FFF03468DF80F309DF90F30C9
:1057A000002B08D09DF90F3013F1020F03D0012315
:1057B0008DF80E300DE09DF80D30002B04D19DF9D1
:1057C0000F3013F1020F01D0012300E000238DF808
:1057D0000D309DF80E30002B1FD100F0D3FE034694
:1057E0008DF80F309DF90F30002B08D09DF90F3048
:1057F00013F1020F03D001238DF80E300DE09DF858
:105800000D30002B04D19DF90F3013F1020F01D0A0
:10581000012300E000238DF80D309DF80E30002BA1
:105820001FD103F073FE03468DF80F309DF90F3042
:10583000002B08D09DF90F3013F1020F03D0012384
:105840008DF80E300DE09DF80D30002B04D19DF940
:105850000F3013F1020F01D0012300E000238DF877
:105860000D309DF80730002B10D00020FDF77AF99D
:105870009DF80E30002B03D19DF80D30002B01D187
:10588000012300E000238DF80E3002E001238DF8A3
:105890000E309DF80E30002B3FF478AF9DF90F309D
:1058A000184605B05DF804FB00B583B000238DF801
:1058B0000230314B1B78DBB2002B02D0002000F00D
:1058C00055FF00F037FF03468DF8033000230193A6
:1058D0000FE00A20FDF746F9019B03F51C53103336
:1058E00001930120FFF744FF00F024FF03468DF8E9
:1058F0000330019B214A934203D89DF80330002BCB
:10590000E7D100F01DFF03468DF8023003F0AEFF33
:1059100003468DF802301A4B00221A70194B0022F0
:105920001A70194B00221A60184B00221A60184B8B
:1059300000221A60174B00221A60174B00221A60CF
:1059400016494FF000024FF04043C1E900230A4BD3
:1059500000221A7008220021114807F0E2FF1149C5
:105960004FF000024FF00003C1E900239DF902301F
:10597000184603B05DF804FBBC080020FF2C310181
:10598000A3080020A4080020A8080020AC080020DC
:10599000B0080020B4080020B8080020B0020020A1
:1059A000D0080020D808002000B587B0634B1B68E2
:1059B0000593059B002B00F0BC80614B1B78DBB28C
:1059C000002B04D15D4B1B68002B00F0B2805D4BB7
:1059D0001B78DBB2022B40F0AC805B4B1B78002BBA
:1059E00040F0A780059BD3E90023CDE90223574B64
:1059F0001B78002B00F08E80554B1B78DBB2002B00
:105A000004D0534B1B78DBB2022B01D1012300E001
:105A100000238DF807304E4B1B78DBB2012B04D0EE
:105A20004B4B1B78DBB2022B01D1012300E000239A
:105A30008DF806309DF80730002B33D0454BD3E965
:105A40000023DDE9020106F0D3FD0346002B0AD056
:105A5000414BD3E900013F4BD3E9002306F0B4FDED
:105A60000346002B14D13B4BD3E90023DDE90201AF
:105A700006F0C8FD0346002B14D0374BD3E90001D4
:105A8000344BD3E9002306F095FD0346002B09D0E3
:105A9000324B1B68002B02D1314B01221A702A4B6A
:105AA00001221A709DF80630002B33D0294BD3E920
:105AB0000023DDE9020106F087FD0346002B0AD032
:105AC000254BD3E90001234BD3E9002306F090FDD9
:105AD0000346002B14D11F4BD3E90023DDE902015B
